:100000000C94BF000C94D1000C9445030C94D100C7
:100010000C94D1000C94D1000C94D1000C94E20209
:100020000C94D1000C94D1000C94D1000C94D1000C
:100030000C94D1000C94D1000C94D1000C94D100FC
:100040000C94D1000C94D1000C94D1000C94D100EC
:100050000C94D10000407A10F35A00A0724E180997
:100060000010A5D4E80000E87648170000E40B541F
:10007000020000CA9A3B000000E1F50500008096EE
:100080009800000040420F000000A0860100000020
:10009000102700000000E8030000000064000000DA
:1000A00000000A00000000000100000000002C76A3
:1000B000D888DC674F0823DFC1DFAE59E1B1B796BE
:1000C000E5E3E453C63AE651997696E8E6C284261B
:1000D000EB898C9B62ED407C6FFCEFBC9C9F40F2F7
:1000E000BAA56FA5F490055A2AF75C936B6CF96773
:1000F0006DC11BFCE0E40D47FEF520E6B500D0ED38
:10010000902E0300943577050080841E080000209F
:100110004E0A000000C80C333333330F986E12833D
:100120001141EF8D2114893BE65516CFFEE6DB1811
:10013000D1844B381BF77C1D901DA4BBE4242032D6
:1001400084725E228100C9F124ECA1E53D27000004
:1001500000000000000010101010101010001818FF
:100160001818181818001C1C1C1C1C1C1C001E1E17
:100170001E1E1E1E1E001F1F1F1F1F1F1F001124DB
:100180001FBECFE5D8E0DEBFCDBF20E0A0E6B0E0E7
:1001900001C01D92A839B207E1F70E947D030C94BB
:1001A000E8080C940000982F907F9BBB9BB3916054
:1001B0009BBB9BB394609BBBE9EFF0E03197F1F7F9
:1001C00000C000009BB39B7F9BBB9BB39E7F9BBBF0
:1001D000E9EFF0E03197F1F700C00000F0E18F9F08
:1001E000C00111248BBB8BB381608BBB8BB384604C
:1001F0008BBB89EF90E00197F1F700C000008BB353
:100200008B7F8BBB8BB38E7F8BBBE9EFF0E031979D
:10021000F1F700C000000895982F907F9BBB9BB31F
:1002200094609BBBE9EFF0E03197F1F700C000006C
:100230009BB39B7F9BBBE9EFF0E03197F1F700C0E8
:100240000000F0E18F9FC00111248BBB8BB3846051
:100250008BBB89EF90E00197F1F700C000008BB3F2
:100260008B7F8BBBE9EFF0E03197F1F700C0000026
:10027000089581E00E940C0108950F931F93CF937E
:10028000DF93009769F0D62F8C01C0E007C0F8011A
:10029000EC0FF11D80810E94D300CF5FCD17B8F322
:1002A000DF91CF911F910F910895623031F063304B
:1002B00031F0613029F4805C03C08C5E01C08C5A3F
:1002C00080680E940C010895EF92FF920F931F9394
:1002D000CF93DF937C01862F90E0880F991F880FC2
:1002E000991F880F991F8064C0E0D0E00DC0F7010E
:1002F000EC0FFD1F149101E0080F0E940C01812FEB
:100300000E94D3002196802FC830D10580F3DF9161
:10031000CF911F910F91FF90EF900895CF93DF93AE
:1003200085EA9EE00197F1F700C000001BBA1BBAF6
:100330008AB3806F8ABB8AB387608ABB90E39BBB1A
:100340008BB384608BBBE9EFF0E03197F1F700C02D
:1003500000008BB38B7F8BBBE9EFF0E03197F1F7B7
:1003600000C000009BBB8BB384608BBB89EF90E027
:100370000197F1F700C000008BB38B7F8BBBE9EFD7
:10038000F0E03197F1F700C0000080E28BBB8BB347
:1003900084608BBB89EF90E00197F1F700C000000B
:1003A0008BB38B7F8BBBE9EFF0E03197F1F700C0A7
:1003B000000088E20E940C018CE00E940C0160E0C9
:1003C000C0E00AC0D1E0D60F8C2F90E0825B9E4F38
:1003D0000E946401C85F6D2FC034A0F3DF91CF91FC
:1003E00008958F929F92AF92BF92CF92DF92EF9239
:1003F000FF920F931F93CF93DF93C62ED72ED82F44
:10040000C92FA22EB32E942E852E2E2D3F2D402F98
:10041000512F0E94A00518168CF02A2D3B2D492D36
:10042000582D6C2D7D2D8D2F9C2F0E9441048823EB
:1004300044F4CA2CDB2C092D182D05C0CE2CDF2C42
:1004400002C00D2F1C2F6C2D7D2D802F912FDF9141
:10045000CF911F910F91FF90EF90DF90CF90BF90C1
:10046000AF909F908F9008954F925F926F927F927E
:100470008F929F92AF92BF92CF92DF92EF92FF92B4
:100480000F931F932B013C01CA01B9014701580189
:10049000A30192010E94D4036B017C01609374005C
:1004A000709375008093760090937700A501940176
:1004B0000E94A5052091700030917100409172005A
:1004C000509173000E94D5032B013C016093700092
:1004D000709371008093720090937300209160007C
:1004E000309161004091620050916300C701B601F4
:1004F0000E94D403A50194010E9446044B015C01B3
:1005000060936C0070936D0080936E0090936F0009
:10051000C0926000D0926100E0926200F0926300AD
:100520002CE53FE842E05FE3C701B6010E94A50564
:100530006B017C0127E73EEB4FE95DE3C301B201AC
:100540000E94A5059B01AC01C701B6010E94D5031D
:100550006B017C012CE53FE842EC5EE3C501B40190
:100560000E94A5059B01AC01C701B6010E94D503FD
:100570000E94B804CB011F910F91FF90EF90DF9084
:10058000CF90BF90AF909F908F907F906F905F9033
:100590004F90089583B7886483BF83B7806383BF18
:1005A00083B7816083BF08951FBC8EB583608EBD05
:1005B0001DBC1CBC82E08BBD81E78ABD89B7806110
:1005C00089BF08951F920F920FB60F9211242F9397
:1005D0003F934F935F936F937F938F939F93AF93CB
:1005E000BF93EF93FF9320E030E040EC51E4609143
:1005F00064007091650080916600909167000E9490
:10060000460420E030E040E752E40E94A50520E0E7
:1006100030E048EC51E40E94A5050E941206609368
:1006200068007093690080936A0090936B00109249
:1006300064001092650010926600109267001DBC65
:100640001CBCFF91EF91BF91AF919F918F917F91D2
:100650006F915F914F913F912F910F900FBE0F902F
:100660001F90189581B3877F81BB82B3886082BB5E
:1006700081B38B7F81BB85B78B7F85BF85B7886052
:1006800085BF8BB780688BBF08951F920F920FB6FE
:100690000F9211242F933F934F935F936F937F9308
:1006A0008F939F93AF93BF93EF93FF9320E030E03E
:1006B00040E85FE36091640070916500809166009E
:1006C000909167000E94D503609364007093650069
:1006D0008093660090936700FF91EF91BF91AF9177
:1006E0009F918F917F916F915F914F913F912F914A
:1006F0000F900FBE0F901F9018950E94D4020E9479
:10070000320387B3886087BB87B3806187BB0E9451
:10071000CA0278940E948E010E943901609168009B
:100720007091690080916A0090916B001AE0E12E4F
:1007300017EDF12E03E21CE320E030E040EA52E442
:100740000E943402BC01990F880B990B0E94F0049F
:10075000E12CF12C0FE713E420E030E0A9010E9426
:10076000F1019B01AC015F77C801B7010E94D4037E
:100770000E94BF046CBF88B388BB60916800709111
:10078000690080916A0090916B0008E710E021E019
:1007900044E00E945F0660E080E00E94550168E04E
:1007A000C8010E943D01BACF5058BB27AA270E941A
:1007B000EC030C9466050E94580538F00E945F0512
:1007C00020F039F49F3F19F426F40C9455050EF4EB
:1007D000E095E7FB0C944F05E92F0E94770558F34D
:1007E000BA17620773078407950720F079F4A6F516
:1007F0000C9499050EF4E0950B2EBA2FA02D0B0149
:10080000B90190010C01CA01A0011124FF27591B55
:1008100099F0593F50F4503E68F11A16F040A22F5B
:10082000232F342F4427585FF3CF469537952795CC
:10083000A795F0405395C9F77EF41F16BA0B620BCB
:10084000730B840BBAF09150A1F0FF0FBB1F661F12
:10085000771F881FC2F70EC0BA0F621F731F841F55
:1008600048F4879577956795B795F7959E3F08F07B
:10087000B0CF9395880F08F09927EE0F979587953D
:1008800008950E942B0508F481E008950E945A04FF
:100890000C9466050E945F0558F00E94580540F0D0
:1008A00029F45F3F29F00C944F0551110C949A05DF
:1008B0000C9455050E94770568F39923B1F35523ED
:1008C00091F3951B550BBB27AA2762177307840763
:1008D00038F09F5F5F4F220F331F441FAA1FA9F3F9
:1008E00035D00E2E3AF0E0E832D091505040E695E7
:1008F000001CCAF72BD0FE2F29D0660F771F881F48
:10090000BB1F261737074807AB07B0E809F0BB0B3A
:10091000802DBF01FF2793585F4F3AF09E3F51054E
:1009200078F00C944F050C949A055F3FE4F3983EE1
:10093000D4F3869577956795B795F7959F5FC9F737
:10094000880F911D9695879597F90895E1E0660FB8
:10095000771F881FBB1F621773078407BA0720F031
:10096000621B730B840BBA0BEE1F88F7E09508959A
:100970000E94BF046894B1110C949A0508950E94D6
:100980007F0588F09F5798F0B92F9927B751B0F09D
:10099000E1F0660F771F881F991F1AF0BA95C9F703
:1009A00014C0B13091F00E949905B1E008950C9403
:1009B0009905672F782F8827B85F39F0B93FCCF3B6
:1009C000869577956795B395D9F73EF49095809580
:1009D000709561957F4F8F4F9F4F0895E89409C0A0
:1009E00097FB3EF490958095709561957F4F8F4F62
:1009F0009F4F9923A9F0F92F96E9BB279395F69578
:100A0000879577956795B795F111F8CFFAF4BB0FF5
:100A100011F460FF1BC06F5F7F4F8F4F9F4F16C059
:100A2000882311F096E911C0772321F09EE8872FE3
:100A3000762F05C0662371F096E8862F70E060E09F
:100A40002AF09A95660F771F881FDAF7880F969518
:100A5000879597F90895990F0008550FAA0BE0E8BC
:100A6000FEEF16161706E807F907C0F01216130670
:100A7000E407F50798F0621B730B840B950B39F4B0
:100A80000A2661F0232B242B252B21F408950A2616
:100A900009F4A140A6958FEF811D811D089597F956
:100AA0009F6780E870E060E008959FEF80EC089514
:100AB00000240A941616170618060906089500243D
:100AC0000A9412161306140605060895092E0394B7
:100AD000000C11F4882352F0BB0F40F4BF2B11F42B
:100AE00060FF04C06F5F7F4F8F4F9F4F089557FD8A
:100AF0009058440F551F59F05F3F71F04795880F8C
:100B000097FB991F61F09F3F79F087950895121622
:100B100013061406551FF2CF4695F1DF08C01616CE
:100B200017061806991FF1CF86957105610508947F
:100B30000895E894BB2766277727CB0197F9089596
:100B40000E942B0508F48FEF08950E94B8050C94BD
:100B500066050E94580538F00E945F0520F0952335
:100B600011F00C944F050C94550511240C949A0522
:100B70000E94770570F3959FC1F3950F50E0551FC4
:100B8000629FF001729FBB27F00DB11D639FAA27E2
:100B9000F00DB11DAA1F649F6627B00DA11D661F31
:100BA000829F2227B00DA11D621F739FB00DA11D52
:100BB000621F839FA00D611D221F749F3327A00D0C
:100BC000611D231F849F600D211D822F762F6A2FA8
:100BD00011249F5750409AF0F1F088234AF0EE0F0D
:100BE000FF1FBB1F661F771F881F91505040A9F73A
:100BF0009E3F510580F00C944F050C949A055F3F81
:100C0000E4F3983ED4F3869577956795B795F79575
:100C1000E7959F5FC1F7FE2B880F911D96958795ED
:100C200097F908950E947F05E8F09E37E8F096391D
:100C3000B8F49E3848F4672F782F8827985FF9CF4B
:100C400086957795679593959539D0F3B62FB170C2
:100C50006B0F711D811D20F487957795679593958E
:100C60000C9436060C9451060C949A05882371F462
:100C7000772321F09850872B762F07C0662311F435
:100C800099270DC09051862B70E060E02AF09A956C
:100C9000660F771F881FDAF7880F9695879597F963
:100CA00008959F3F31F0915020F48795779567958F
:100CB000B795880F911D9695879597F90895EF92AE
:100CC0000F931F93CF93DF93E80147FD02C034E0F9
:100CD00001C034E1042E000C550B57FF03C05195A1
:100CE00041955109E32E022F242FAE010E947F0669
:100CF000CE01DF91CF911F910F91EF900895A9E060
:100D0000B0E0E5E8F6E00C94B7086A01122FB02EC7
:100D10002BE3201720F0FF24F394F00E02C02CE305
:100D2000F22E0F2D27E0AE014F5F5F4F0E94D907D3
:100D3000BC014981842F8970813031F0E1FC06C00B
:100D4000E0FE06C090E205C09DE203C09BE201C048
:100D500090E05E2D507143FF3CC0911102C083E0D2
:100D600001C084E0811718F4212F281B01C020E066
:100D700051110BC0F601822F30E2882319F0319314
:100D80008150FBCFC20ED11C20E0992329F0D6015F
:100D90009C93F60131966F01C6010396E2FE0AC0EC
:100DA0003EE4D6013C9341E411964C931197129680
:100DB0003C9306C03EE6F601308341E64183328330
:100DC000FC01322F40E2332309F442C041933150F9
:100DD000FACF42FF44C0911102C083E001C084E019
:100DE000811718F4212F281B01C020E051110BC0DE
:100DF000F601822F30E2882319F031938150FBCF26
:100E0000C20ED11C20E0992329F0D6019C93F60153
:100E100031966F01C6010396E2FE0BC039E4D6019C
:100E20003C933EE411963C93119736E412963C9322
:100E300007C039E6F60130833EE6318336E6328379
:100E4000FC01322F40E2332319F041933150FBCFA4
:100E5000FC01E20FF11D10828EEF9FEFA6C021E092
:100E600030E0911102C020E030E0161617061CF4A5
:100E7000FB01319602C0E1E0F0E02E0F3F1FBB20E6
:100E800021F0EB2DF0E0319602C0E0E0F0E02E0F13
:100E90003F1FE12FF0E02E173F071CF4121B212FFC
:100EA00001C020E08E2D887159F4F601822F30E2C6
:100EB000882319F031938150FBCFC20ED11C20E062
:100EC000992329F0D6019C93F60131966F015111B7
:100ED0000BC0F601822F90E3882319F09193815083
:100EE000FBCFC20ED11C20E00F2D060F9A81342FAC
:100EF000307144FF03C0913309F40150101624F4FB
:100F0000093018F008E001C001E0AB0177FF02C032
:100F100040E050E0FB01E41BF50BA1E0B0E0AC0FBA
:100F2000BD1FEA0FFB1F8EE2A82E4B01801A91080D
:100F30000B2D10E01195019511094F3FBFEF5B0795
:100F400021F4D601AC9211966D01641775072CF04F
:100F50008416950614F4818101C080E34150510943
:100F60003196D60111967D014017510724F0D60124
:100F70008C936701E2CF6417750739F4963320F438
:100F8000953319F4311101C081E3F6018083F70133
:100F9000822F90E2882319F091938150FBCFF701C3
:100FA000E20FF11D108280E090E02996ECE00C94B5
:100FB000D308283008F027E03327DA01990F311DD4
:100FC00087FD916000966105710539F432602E5FEE
:100FD0003D9330E32A95E1F708959F3F30F0803844
:100FE0007105610509F03C5F3C5F3D93913008F06D
:100FF0008068911DDF93CF931F930F93FF92EF9221
:10100000192F987F9695E92F96959695E90FFF27CA
:10101000E255FF4F99273327EE24FF24A701E7016C
:1010200005900894079428F4360FE71EF81E491F10
:10103000511D660F771F881F991F0694A1F7059011
:10104000079428F4E70EF81E491F561FC11D770F9D
:10105000881F991F661F0694A1F70590079428F42E
:10106000F80E491F561FC71FD11D880F991F661FF5
:10107000771F0694A1F70590079420F4490F561F97
:10108000C71FD81F990F661F771F881F0694A9F7DF
:1010900084911095177041F0D695C795579547954F
:1010A000F794E7941A95C1F7E4E5F0E06894159099
:1010B000159135916591959105907FE27395E118B1
:1010C000F10A430B560BC90BD009C0F7E10CF11E16
:1010D000431F561FC91FD01D7EF4703311F48A952B
:1010E000E6CFE894015030F0080F0AF40027021709
:1010F00008F4202F2395022F7A3328F079E37D938B
:101100002A95E9F710C07D932A9589F6069497955C
:101110006795379517951794E118F10A430B560B0D
:10112000C90BD00998F023957E9173957A3308F016
:1011300070E37C932013B8F77E9170617D9330F05B
:10114000839571E37D9370E32A95E1F71124EF9085
:10115000FF900F911F91CF91DF91992787FD909577
:1011600008952F923F924F925F926F927F928F924B
:101170009F92AF92BF92CF92DF92EF92FF920F9326
:101180001F93CF93DF93CDB7DEB7CA1BDB0B0FB630
:10119000F894DEBF0FBECDBF09942A8839884888ED
:1011A0005F846E847D848C849B84AA84B984C88483
:1011B000DF80EE80FD800C811B81AA81B981CE0F7A
:1011C000D11D0FB6F894DEBF0FBECDBFED0108955F
:0411D000F894FFCFC1
:00000001FF
