
GccApplication1.elf:     file format elf32-avr

Sections:
Idx Name          Size      VMA       LMA       File off  Algn
  0 .text         00000b9e  00000000  00000000  00000094  2**1
                  CONTENTS, ALLOC, LOAD, READONLY, CODE
  1 .data         00000004  00800060  00000b9e  00000c32  2**0
                  CONTENTS, ALLOC, LOAD, DATA
  2 .bss          0000000a  00800064  00800064  00000c36  2**0
                  ALLOC
  3 .comment      00000030  00000000  00000000  00000c36  2**0
                  CONTENTS, READONLY
  4 .note.gnu.avr.deviceinfo 0000003c  00000000  00000000  00000c68  2**2
                  CONTENTS, READONLY
  5 .debug_aranges 00000090  00000000  00000000  00000ca4  2**0
                  CONTENTS, READONLY, DEBUGGING
  6 .debug_info   00000aa2  00000000  00000000  00000d34  2**0
                  CONTENTS, READONLY, DEBUGGING
  7 .debug_abbrev 000007d0  00000000  00000000  000017d6  2**0
                  CONTENTS, READONLY, DEBUGGING
  8 .debug_line   000004e0  00000000  00000000  00001fa6  2**0
                  CONTENTS, READONLY, DEBUGGING
  9 .debug_frame  000001c0  00000000  00000000  00002488  2**2
                  CONTENTS, READONLY, DEBUGGING
 10 .debug_str    00000574  00000000  00000000  00002648  2**0
                  CONTENTS, READONLY, DEBUGGING
 11 .debug_loc    000004f5  00000000  00000000  00002bbc  2**0
                  CONTENTS, READONLY, DEBUGGING
 12 .debug_ranges 00000070  00000000  00000000  000030b1  2**0
                  CONTENTS, READONLY, DEBUGGING

Disassembly of section .text:

00000000 <__vectors>:
   0:	0c 94 a7 00 	jmp	0x14e	; 0x14e <__ctors_end>
   4:	0c 94 0e 01 	jmp	0x21c	; 0x21c <__vector_1>
   8:	0c 94 c4 00 	jmp	0x188	; 0x188 <__bad_interrupt>
   c:	0c 94 c4 00 	jmp	0x188	; 0x188 <__bad_interrupt>
  10:	0c 94 c4 00 	jmp	0x188	; 0x188 <__bad_interrupt>
  14:	0c 94 c4 00 	jmp	0x188	; 0x188 <__bad_interrupt>
  18:	0c 94 c4 00 	jmp	0x188	; 0x188 <__bad_interrupt>
  1c:	0c 94 e4 00 	jmp	0x1c8	; 0x1c8 <__vector_7>
  20:	0c 94 c4 00 	jmp	0x188	; 0x188 <__bad_interrupt>
  24:	0c 94 c4 00 	jmp	0x188	; 0x188 <__bad_interrupt>
  28:	0c 94 c4 00 	jmp	0x188	; 0x188 <__bad_interrupt>
  2c:	0c 94 c4 00 	jmp	0x188	; 0x188 <__bad_interrupt>
  30:	0c 94 c4 00 	jmp	0x188	; 0x188 <__bad_interrupt>
  34:	0c 94 c4 00 	jmp	0x188	; 0x188 <__bad_interrupt>
  38:	0c 94 c4 00 	jmp	0x188	; 0x188 <__bad_interrupt>
  3c:	0c 94 c4 00 	jmp	0x188	; 0x188 <__bad_interrupt>
  40:	0c 94 c4 00 	jmp	0x188	; 0x188 <__bad_interrupt>
  44:	0c 94 c4 00 	jmp	0x188	; 0x188 <__bad_interrupt>
  48:	0c 94 c4 00 	jmp	0x188	; 0x188 <__bad_interrupt>
  4c:	0c 94 c4 00 	jmp	0x188	; 0x188 <__bad_interrupt>
  50:	0c 94 c4 00 	jmp	0x188	; 0x188 <__bad_interrupt>

00000054 <__trampolines_end>:
  54:	00 40       	sbci	r16, 0x00	; 0
  56:	7a 10       	cpse	r7, r10
  58:	f3 5a       	subi	r31, 0xA3	; 163
  5a:	00 a0       	ldd	r0, Z+32	; 0x20
  5c:	72 4e       	sbci	r23, 0xE2	; 226
  5e:	18 09       	sbc	r17, r8
  60:	00 10       	cpse	r0, r0
  62:	a5 d4       	rcall	.+2378   	; 0x9ae <__ftoa_engine+0x32>
  64:	e8 00       	.word	0x00e8	; ????
  66:	00 e8       	ldi	r16, 0x80	; 128
  68:	76 48       	sbci	r23, 0x86	; 134
  6a:	17 00       	.word	0x0017	; ????
  6c:	00 e4       	ldi	r16, 0x40	; 64
  6e:	0b 54       	subi	r16, 0x4B	; 75
  70:	02 00       	.word	0x0002	; ????
  72:	00 ca       	rjmp	.-3072   	; 0xfffff474 <__eeprom_end+0xff7ef474>
  74:	9a 3b       	cpi	r25, 0xBA	; 186
  76:	00 00       	nop
  78:	00 e1       	ldi	r16, 0x10	; 16
  7a:	f5 05       	cpc	r31, r5
  7c:	00 00       	nop
  7e:	80 96       	adiw	r24, 0x20	; 32
  80:	98 00       	.word	0x0098	; ????
  82:	00 00       	nop
  84:	40 42       	sbci	r20, 0x20	; 32
  86:	0f 00       	.word	0x000f	; ????
  88:	00 00       	nop
  8a:	a0 86       	std	Z+8, r10	; 0x08
  8c:	01 00       	.word	0x0001	; ????
  8e:	00 00       	nop
  90:	10 27       	eor	r17, r16
  92:	00 00       	nop
  94:	00 00       	nop
  96:	e8 03       	fmulsu	r22, r16
  98:	00 00       	nop
  9a:	00 00       	nop
  9c:	64 00       	.word	0x0064	; ????
  9e:	00 00       	nop
  a0:	00 00       	nop
  a2:	0a 00       	.word	0x000a	; ????
  a4:	00 00       	nop
  a6:	00 00       	nop
  a8:	01 00       	.word	0x0001	; ????
  aa:	00 00       	nop
  ac:	00 00       	nop
  ae:	2c 76       	andi	r18, 0x6C	; 108
  b0:	d8 88       	ldd	r13, Y+16	; 0x10
  b2:	dc 67       	ori	r29, 0x7C	; 124
  b4:	4f 08       	sbc	r4, r15
  b6:	23 df       	rcall	.-442    	; 0xfffffefe <__eeprom_end+0xff7efefe>
  b8:	c1 df       	rcall	.-126    	; 0x3c <__FUSE_REGION_LENGTH__+0x3a>
  ba:	ae 59       	subi	r26, 0x9E	; 158
  bc:	e1 b1       	in	r30, 0x01	; 1
  be:	b7 96       	adiw	r30, 0x27	; 39
  c0:	e5 e3       	ldi	r30, 0x35	; 53
  c2:	e4 53       	subi	r30, 0x34	; 52
  c4:	c6 3a       	cpi	r28, 0xA6	; 166
  c6:	e6 51       	subi	r30, 0x16	; 22
  c8:	99 76       	andi	r25, 0x69	; 105
  ca:	96 e8       	ldi	r25, 0x86	; 134
  cc:	e6 c2       	rjmp	.+1484   	; 0x69a <dtostrf+0x12>
  ce:	84 26       	eor	r8, r20
  d0:	eb 89       	ldd	r30, Y+19	; 0x13
  d2:	8c 9b       	sbis	0x11, 4	; 17
  d4:	62 ed       	ldi	r22, 0xD2	; 210
  d6:	40 7c       	andi	r20, 0xC0	; 192
  d8:	6f fc       	.word	0xfc6f	; ????
  da:	ef bc       	out	0x2f, r14	; 47
  dc:	9c 9f       	mul	r25, r28
  de:	40 f2       	brcs	.-112    	; 0x70 <__trampolines_end+0x1c>
  e0:	ba a5       	ldd	r27, Y+42	; 0x2a
  e2:	6f a5       	ldd	r22, Y+47	; 0x2f
  e4:	f4 90       	lpm	r15, Z
  e6:	05 5a       	subi	r16, 0xA5	; 165
  e8:	2a f7       	brpl	.-54     	; 0xb4 <__trampolines_end+0x60>
  ea:	5c 93       	st	X, r21
  ec:	6b 6c       	ori	r22, 0xCB	; 203
  ee:	f9 67       	ori	r31, 0x79	; 121
  f0:	6d c1       	rjmp	.+730    	; 0x3cc <__divsf3+0x1e>
  f2:	1b fc       	.word	0xfc1b	; ????
  f4:	e0 e4       	ldi	r30, 0x40	; 64
  f6:	0d 47       	sbci	r16, 0x7D	; 125
  f8:	fe f5       	brtc	.+126    	; 0x178 <.do_clear_bss_loop>
  fa:	20 e6       	ldi	r18, 0x60	; 96
  fc:	b5 00       	.word	0x00b5	; ????
  fe:	d0 ed       	ldi	r29, 0xD0	; 208
 100:	90 2e       	mov	r9, r16
 102:	03 00       	.word	0x0003	; ????
 104:	94 35       	cpi	r25, 0x54	; 84
 106:	77 05       	cpc	r23, r7
 108:	00 80       	ld	r0, Z
 10a:	84 1e       	adc	r8, r20
 10c:	08 00       	.word	0x0008	; ????
 10e:	00 20       	and	r0, r0
 110:	4e 0a       	sbc	r4, r30
 112:	00 00       	nop
 114:	00 c8       	rjmp	.-4096   	; 0xfffff116 <__eeprom_end+0xff7ef116>
 116:	0c 33       	cpi	r16, 0x3C	; 60
 118:	33 33       	cpi	r19, 0x33	; 51
 11a:	33 0f       	add	r19, r19
 11c:	98 6e       	ori	r25, 0xE8	; 232
 11e:	12 83       	std	Z+2, r17	; 0x02
 120:	11 41       	sbci	r17, 0x11	; 17
 122:	ef 8d       	ldd	r30, Y+31	; 0x1f
 124:	21 14       	cp	r2, r1
 126:	89 3b       	cpi	r24, 0xB9	; 185
 128:	e6 55       	subi	r30, 0x56	; 86
 12a:	16 cf       	rjmp	.-468    	; 0xffffff58 <__eeprom_end+0xff7eff58>
 12c:	fe e6       	ldi	r31, 0x6E	; 110
 12e:	db 18       	sub	r13, r11
 130:	d1 84       	ldd	r13, Z+9	; 0x09
 132:	4b 38       	cpi	r20, 0x8B	; 139
 134:	1b f7       	brvc	.-58     	; 0xfc <__trampolines_end+0xa8>
 136:	7c 1d       	adc	r23, r12
 138:	90 1d       	adc	r25, r0
 13a:	a4 bb       	out	0x14, r26	; 20
 13c:	e4 24       	eor	r14, r4
 13e:	20 32       	cpi	r18, 0x20	; 32
 140:	84 72       	andi	r24, 0x24	; 36
 142:	5e 22       	and	r5, r30
 144:	81 00       	.word	0x0081	; ????
 146:	c9 f1       	breq	.+114    	; 0x1ba <_Z10USART_Initj>
 148:	24 ec       	ldi	r18, 0xC4	; 196
 14a:	a1 e5       	ldi	r26, 0x51	; 81
 14c:	3d 27       	eor	r19, r29

0000014e <__ctors_end>:
 14e:	11 24       	eor	r1, r1
 150:	1f be       	out	0x3f, r1	; 63
 152:	cf e5       	ldi	r28, 0x5F	; 95
 154:	d8 e0       	ldi	r29, 0x08	; 8
 156:	de bf       	out	0x3e, r29	; 62
 158:	cd bf       	out	0x3d, r28	; 61

0000015a <__do_copy_data>:
 15a:	10 e0       	ldi	r17, 0x00	; 0
 15c:	a0 e6       	ldi	r26, 0x60	; 96
 15e:	b0 e0       	ldi	r27, 0x00	; 0
 160:	ee e9       	ldi	r30, 0x9E	; 158
 162:	fb e0       	ldi	r31, 0x0B	; 11
 164:	02 c0       	rjmp	.+4      	; 0x16a <__do_copy_data+0x10>
 166:	05 90       	lpm	r0, Z+
 168:	0d 92       	st	X+, r0
 16a:	a4 36       	cpi	r26, 0x64	; 100
 16c:	b1 07       	cpc	r27, r17
 16e:	d9 f7       	brne	.-10     	; 0x166 <__do_copy_data+0xc>

00000170 <__do_clear_bss>:
 170:	20 e0       	ldi	r18, 0x00	; 0
 172:	a4 e6       	ldi	r26, 0x64	; 100
 174:	b0 e0       	ldi	r27, 0x00	; 0
 176:	01 c0       	rjmp	.+2      	; 0x17a <.do_clear_bss_start>

00000178 <.do_clear_bss_loop>:
 178:	1d 92       	st	X+, r1

0000017a <.do_clear_bss_start>:
 17a:	ae 36       	cpi	r26, 0x6E	; 110
 17c:	b2 07       	cpc	r27, r18
 17e:	e1 f7       	brne	.-8      	; 0x178 <.do_clear_bss_loop>
 180:	0e 94 73 01 	call	0x2e6	; 0x2e6 <main>
 184:	0c 94 cd 05 	jmp	0xb9a	; 0xb9a <_exit>

00000188 <__bad_interrupt>:
 188:	0c 94 00 00 	jmp	0	; 0x0 <__vectors>

0000018c <_Z11timer1_initv>:

	const int clock_frequency = FOSC / prescaler;
	const float tickLength = 1.0 / (float)clock_frequency * 1000.0; // Time period is reciprocal of freq
	const int countsToGenerateDelay =  (float)sampleTime / tickLength;
	
	TCCR1B |= (1 << WGM12) | (1 << CS12); // Enable Clear Timer on Compare mode, and set prescaler to CS12(256).
 18c:	8e b5       	in	r24, 0x2e	; 46
 18e:	8c 60       	ori	r24, 0x0C	; 12
 190:	8e bd       	out	0x2e, r24	; 46
	TCNT1 = 0;	// Start with 0.
 192:	1d bc       	out	0x2d, r1	; 45
 194:	1c bc       	out	0x2c, r1	; 44
	OCR1A = countsToGenerateDelay; // To generate delay of "sampleTime", you need "countsToGenerateDelay" counts.
 196:	88 e3       	ldi	r24, 0x38	; 56
 198:	91 e0       	ldi	r25, 0x01	; 1
 19a:	9b bd       	out	0x2b, r25	; 43
 19c:	8a bd       	out	0x2a, r24	; 42
	TIMSK |= (1 << OCIE1A);
 19e:	89 b7       	in	r24, 0x39	; 57
 1a0:	80 61       	ori	r24, 0x10	; 16
 1a2:	89 bf       	out	0x39, r24	; 57
 1a4:	08 95       	ret

000001a6 <_Z11timer0_initv>:
}

void timer0_init()
{
	TCCR0 |= (1 << WGM01) | (1 << WGM00); // FAST MODE PWM
 1a6:	83 b7       	in	r24, 0x33	; 51
 1a8:	88 64       	ori	r24, 0x48	; 72
 1aa:	83 bf       	out	0x33, r24	; 51
	TCCR0 |= (1 << COM00) | (1 << COM01); // Inverted mode
 1ac:	83 b7       	in	r24, 0x33	; 51
 1ae:	80 63       	ori	r24, 0x30	; 48
 1b0:	83 bf       	out	0x33, r24	; 51
	TCCR0 |= (1 << CS00);
 1b2:	83 b7       	in	r24, 0x33	; 51
 1b4:	81 60       	ori	r24, 0x01	; 1
 1b6:	83 bf       	out	0x33, r24	; 51
 1b8:	08 95       	ret

000001ba <_Z10USART_Initj>:
}

void USART_Init(unsigned int ubrr)
{
	UBRRH = (unsigned char)(ubrr>>8);
 1ba:	90 bd       	out	0x20, r25	; 32
	UBRRL = (unsigned char)ubrr;
 1bc:	89 b9       	out	0x09, r24	; 9
	UCSRB = (1<<RXEN)|(1<<TXEN)|(1<<RXCIE);
 1be:	88 e9       	ldi	r24, 0x98	; 152
 1c0:	8a b9       	out	0x0a, r24	; 10
	UCSRC = (1<<USBS)|(3<<UCSZ0);
 1c2:	8e e0       	ldi	r24, 0x0E	; 14
 1c4:	80 bd       	out	0x20, r24	; 32
 1c6:	08 95       	ret

000001c8 <__vector_7>:

int totalTimerInterrupts = 0;
int miliSecondsPassed = 0;

ISR (TIMER1_COMPA_vect)
{
 1c8:	1f 92       	push	r1
 1ca:	0f 92       	push	r0
 1cc:	0f b6       	in	r0, 0x3f	; 63
 1ce:	0f 92       	push	r0
 1d0:	11 24       	eor	r1, r1
 1d2:	2f 93       	push	r18
 1d4:	3f 93       	push	r19
 1d6:	8f 93       	push	r24
 1d8:	9f 93       	push	r25
	totalTimerInterrupts++;
 1da:	80 91 6c 00 	lds	r24, 0x006C	; 0x80006c <totalTimerInterrupts>
 1de:	90 91 6d 00 	lds	r25, 0x006D	; 0x80006d <totalTimerInterrupts+0x1>
 1e2:	01 96       	adiw	r24, 0x01	; 1
 1e4:	90 93 6d 00 	sts	0x006D, r25	; 0x80006d <totalTimerInterrupts+0x1>
 1e8:	80 93 6c 00 	sts	0x006C, r24	; 0x80006c <totalTimerInterrupts>
	miliSecondsPassed = totalTimerInterrupts * sampleTime;
 1ec:	9c 01       	movw	r18, r24
 1ee:	22 0f       	add	r18, r18
 1f0:	33 1f       	adc	r19, r19
 1f2:	88 0f       	add	r24, r24
 1f4:	99 1f       	adc	r25, r25
 1f6:	88 0f       	add	r24, r24
 1f8:	99 1f       	adc	r25, r25
 1fa:	88 0f       	add	r24, r24
 1fc:	99 1f       	adc	r25, r25
 1fe:	82 0f       	add	r24, r18
 200:	93 1f       	adc	r25, r19
 202:	90 93 6b 00 	sts	0x006B, r25	; 0x80006b <miliSecondsPassed+0x1>
 206:	80 93 6a 00 	sts	0x006A, r24	; 0x80006a <miliSecondsPassed>
}
 20a:	9f 91       	pop	r25
 20c:	8f 91       	pop	r24
 20e:	3f 91       	pop	r19
 210:	2f 91       	pop	r18
 212:	0f 90       	pop	r0
 214:	0f be       	out	0x3f, r0	; 63
 216:	0f 90       	pop	r0
 218:	1f 90       	pop	r1
 21a:	18 95       	reti

0000021c <__vector_1>:

int impulseCounter = 0;
float speed_RPM = 0;
ISR(INT0_vect)
{
 21c:	1f 92       	push	r1
 21e:	0f 92       	push	r0
 220:	0f b6       	in	r0, 0x3f	; 63
 222:	0f 92       	push	r0
 224:	11 24       	eor	r1, r1
 226:	2f 93       	push	r18
 228:	3f 93       	push	r19
 22a:	4f 93       	push	r20
 22c:	5f 93       	push	r21
 22e:	6f 93       	push	r22
 230:	7f 93       	push	r23
 232:	8f 93       	push	r24
 234:	9f 93       	push	r25
 236:	af 93       	push	r26
 238:	bf 93       	push	r27
 23a:	ef 93       	push	r30
 23c:	ff 93       	push	r31
	const int pulsesPerOneRevolution = 300;
	impulseCounter+=1;
 23e:	80 91 68 00 	lds	r24, 0x0068	; 0x800068 <impulseCounter>
 242:	90 91 69 00 	lds	r25, 0x0069	; 0x800069 <impulseCounter+0x1>
 246:	01 96       	adiw	r24, 0x01	; 1
 248:	90 93 69 00 	sts	0x0069, r25	; 0x800069 <impulseCounter+0x1>
 24c:	80 93 68 00 	sts	0x0068, r24	; 0x800068 <impulseCounter>
	if(impulseCounter > pulsesPerOneRevolution){
 250:	8d 32       	cpi	r24, 0x2D	; 45
 252:	91 40       	sbci	r25, 0x01	; 1
 254:	bc f1       	brlt	.+110    	; 0x2c4 <__vector_1+0xa8>
		impulseCounter = 0;
 256:	10 92 69 00 	sts	0x0069, r1	; 0x800069 <impulseCounter+0x1>
 25a:	10 92 68 00 	sts	0x0068, r1	; 0x800068 <impulseCounter>
		speed_RPM = 1.0 / miliSecondsPassed * 1000.0 * 60.0;
 25e:	60 91 6a 00 	lds	r22, 0x006A	; 0x80006a <miliSecondsPassed>
 262:	70 91 6b 00 	lds	r23, 0x006B	; 0x80006b <miliSecondsPassed+0x1>
 266:	07 2e       	mov	r0, r23
 268:	00 0c       	add	r0, r0
 26a:	88 0b       	sbc	r24, r24
 26c:	99 0b       	sbc	r25, r25
 26e:	0e 94 4b 02 	call	0x496	; 0x496 <__floatsisf>
 272:	9b 01       	movw	r18, r22
 274:	ac 01       	movw	r20, r24
 276:	60 e0       	ldi	r22, 0x00	; 0
 278:	70 e0       	ldi	r23, 0x00	; 0
 27a:	80 e8       	ldi	r24, 0x80	; 128
 27c:	9f e3       	ldi	r25, 0x3F	; 63
 27e:	0e 94 d7 01 	call	0x3ae	; 0x3ae <__divsf3>
 282:	20 e0       	ldi	r18, 0x00	; 0
 284:	30 e0       	ldi	r19, 0x00	; 0
 286:	4a e7       	ldi	r20, 0x7A	; 122
 288:	54 e4       	ldi	r21, 0x44	; 68
 28a:	0e 94 d7 02 	call	0x5ae	; 0x5ae <__mulsf3>
 28e:	20 e0       	ldi	r18, 0x00	; 0
 290:	30 e0       	ldi	r19, 0x00	; 0
 292:	40 e7       	ldi	r20, 0x70	; 112
 294:	52 e4       	ldi	r21, 0x42	; 66
 296:	0e 94 d7 02 	call	0x5ae	; 0x5ae <__mulsf3>
 29a:	60 93 64 00 	sts	0x0064, r22	; 0x800064 <__data_end>
 29e:	70 93 65 00 	sts	0x0065, r23	; 0x800065 <__data_end+0x1>
 2a2:	80 93 66 00 	sts	0x0066, r24	; 0x800066 <__data_end+0x2>
 2a6:	90 93 67 00 	sts	0x0067, r25	; 0x800067 <__data_end+0x3>
		totalTimerInterrupts = 0;
 2aa:	10 92 6d 00 	sts	0x006D, r1	; 0x80006d <totalTimerInterrupts+0x1>
 2ae:	10 92 6c 00 	sts	0x006C, r1	; 0x80006c <totalTimerInterrupts>

		sendFloat(speed_RPM);
 2b2:	0e 94 b6 01 	call	0x36c	; 0x36c <_Z9sendFloatf>
		sendEndl();
 2b6:	0e 94 b1 01 	call	0x362	; 0x362 <_Z8sendEndlv>
		
		float dt = miliSecondsPassed / 1000.0;
		//OCR0 = PID(speed_RPM, fabs(REQUIRED_RPM), dt);
		PORTB |= REQUIRED_RPM>=0?(0b00010000):(0b00000000);
 2ba:	88 b3       	in	r24, 0x18	; 24
 2bc:	80 61       	ori	r24, 0x10	; 16
 2be:	88 bb       	out	0x18, r24	; 24
		OCR0 = 255; // 255 = 11 volts 
 2c0:	8f ef       	ldi	r24, 0xFF	; 255
 2c2:	8c bf       	out	0x3c, r24	; 60
		//OCR0 = 0;
	}
}
 2c4:	ff 91       	pop	r31
 2c6:	ef 91       	pop	r30
 2c8:	bf 91       	pop	r27
 2ca:	af 91       	pop	r26
 2cc:	9f 91       	pop	r25
 2ce:	8f 91       	pop	r24
 2d0:	7f 91       	pop	r23
 2d2:	6f 91       	pop	r22
 2d4:	5f 91       	pop	r21
 2d6:	4f 91       	pop	r20
 2d8:	3f 91       	pop	r19
 2da:	2f 91       	pop	r18
 2dc:	0f 90       	pop	r0
 2de:	0f be       	out	0x3f, r0	; 63
 2e0:	0f 90       	pop	r0
 2e2:	1f 90       	pop	r1
 2e4:	18 95       	reti

000002e6 <main>:



int main(void)
{
	cli();
 2e6:	f8 94       	cli
	USART_Init(MYUBRR);
 2e8:	8f ec       	ldi	r24, 0xCF	; 207
 2ea:	90 e0       	ldi	r25, 0x00	; 0
 2ec:	0e 94 dd 00 	call	0x1ba	; 0x1ba <_Z10USART_Initj>
	timer1_init();
 2f0:	0e 94 c6 00 	call	0x18c	; 0x18c <_Z11timer1_initv>
	timer0_init();
 2f4:	0e 94 d3 00 	call	0x1a6	; 0x1a6 <_Z11timer0_initv>
	#else
		//round up by default
		__ticks_dc = (uint32_t)(ceil(fabs(__tmp)));
	#endif

	__builtin_avr_delay_cycles(__ticks_dc);
 2f8:	87 ea       	ldi	r24, 0xA7	; 167
 2fa:	91 e6       	ldi	r25, 0x61	; 97
 2fc:	01 97       	sbiw	r24, 0x01	; 1
 2fe:	f1 f7       	brne	.-4      	; 0x2fc <main+0x16>
 300:	00 c0       	rjmp	.+0      	; 0x302 <main+0x1c>
 302:	00 00       	nop

	_delay_ms(100);
	
	DDRB &= ~(1<<2);
 304:	87 b3       	in	r24, 0x17	; 23
 306:	8b 7f       	andi	r24, 0xFB	; 251
 308:	87 bb       	out	0x17, r24	; 23
	PORTB |= (1<<2);
 30a:	88 b3       	in	r24, 0x18	; 24
 30c:	84 60       	ori	r24, 0x04	; 4
 30e:	88 bb       	out	0x18, r24	; 24
	DDRB &= ~(1<<1);
 310:	87 b3       	in	r24, 0x17	; 23
 312:	8d 7f       	andi	r24, 0xFD	; 253
 314:	87 bb       	out	0x17, r24	; 23
	DDRB |= (1<<0);
 316:	87 b3       	in	r24, 0x17	; 23
 318:	81 60       	ori	r24, 0x01	; 1
 31a:	87 bb       	out	0x17, r24	; 23
	MCUCR &= ~(1<<ISC2);
 31c:	85 b7       	in	r24, 0x35	; 53
 31e:	8f 7b       	andi	r24, 0xBF	; 191
 320:	85 bf       	out	0x35, r24	; 53
	sei();
 322:	78 94       	sei
	GICR |= (1<<INT0);
 324:	8b b7       	in	r24, 0x3b	; 59
 326:	80 64       	ori	r24, 0x40	; 64
 328:	8b bf       	out	0x3b, r24	; 59
 32a:	ff cf       	rjmp	.-2      	; 0x32a <main+0x44>

0000032c <_Z14USART_Transmitj>:
#include "serial.h"

void USART_Transmit(unsigned int data)
{
 32c:	9c 01       	movw	r18, r24
	while ( !(UCSRA & (1<<UDRE)));
 32e:	5d 9b       	sbis	0x0b, 5	; 11
 330:	fe cf       	rjmp	.-4      	; 0x32e <_Z14USART_Transmitj+0x2>
	UCSRB &= ~(1<<TXB8);
 332:	9a b1       	in	r25, 0x0a	; 10
 334:	9e 7f       	andi	r25, 0xFE	; 254
 336:	9a b9       	out	0x0a, r25	; 10
	if (data & 0x0100) UCSRB |= (1<<TXB8);
 338:	30 ff       	sbrs	r19, 0
 33a:	03 c0       	rjmp	.+6      	; 0x342 <_Z14USART_Transmitj+0x16>
 33c:	8a b1       	in	r24, 0x0a	; 10
 33e:	81 60       	ori	r24, 0x01	; 1
 340:	8a b9       	out	0x0a, r24	; 10
	UDR = data;
 342:	2c b9       	out	0x0c, r18	; 12
 344:	08 95       	ret

00000346 <_Z10sendStringPc>:
}

void sendString(char *string)
{
 346:	cf 93       	push	r28
 348:	df 93       	push	r29
 34a:	ec 01       	movw	r28, r24
	while(*string !='\0')
 34c:	88 81       	ld	r24, Y
 34e:	88 23       	and	r24, r24
 350:	29 f0       	breq	.+10     	; 0x35c <_Z10sendStringPc+0x16>
	{
		USART_Transmit(*string);
 352:	90 e0       	ldi	r25, 0x00	; 0
 354:	0e 94 96 01 	call	0x32c	; 0x32c <_Z14USART_Transmitj>
		string++;
 358:	21 96       	adiw	r28, 0x01	; 1
	UDR = data;
}

void sendString(char *string)
{
	while(*string !='\0')
 35a:	f8 cf       	rjmp	.-16     	; 0x34c <_Z10sendStringPc+0x6>
	{
		USART_Transmit(*string);
		string++;
	}
}
 35c:	df 91       	pop	r29
 35e:	cf 91       	pop	r28
 360:	08 95       	ret

00000362 <_Z8sendEndlv>:
void sendEndl(){
	sendString("\r\n");
 362:	80 e6       	ldi	r24, 0x60	; 96
 364:	90 e0       	ldi	r25, 0x00	; 0
 366:	0e 94 a3 01 	call	0x346	; 0x346 <_Z10sendStringPc>
 36a:	08 95       	ret

0000036c <_Z9sendFloatf>:
}

void sendFloat(float value){
 36c:	0f 93       	push	r16
 36e:	1f 93       	push	r17
 370:	cf 93       	push	r28
 372:	df 93       	push	r29
 374:	cd b7       	in	r28, 0x3d	; 61
 376:	de b7       	in	r29, 0x3e	; 62
 378:	a0 97       	sbiw	r28, 0x20	; 32
 37a:	0f b6       	in	r0, 0x3f	; 63
 37c:	f8 94       	cli
 37e:	de bf       	out	0x3e, r29	; 62
 380:	0f be       	out	0x3f, r0	; 63
 382:	cd bf       	out	0x3d, r28	; 61
	char tempStr[32];
	dtostrf(value, sizeof value, 1, tempStr);
 384:	8e 01       	movw	r16, r28
 386:	0f 5f       	subi	r16, 0xFF	; 255
 388:	1f 4f       	sbci	r17, 0xFF	; 255
 38a:	21 e0       	ldi	r18, 0x01	; 1
 38c:	44 e0       	ldi	r20, 0x04	; 4
 38e:	0e 94 44 03 	call	0x688	; 0x688 <dtostrf>
	sendString(tempStr);
 392:	c8 01       	movw	r24, r16
 394:	0e 94 a3 01 	call	0x346	; 0x346 <_Z10sendStringPc>
 398:	a0 96       	adiw	r28, 0x20	; 32
 39a:	0f b6       	in	r0, 0x3f	; 63
 39c:	f8 94       	cli
 39e:	de bf       	out	0x3e, r29	; 62
 3a0:	0f be       	out	0x3f, r0	; 63
 3a2:	cd bf       	out	0x3d, r28	; 61
 3a4:	df 91       	pop	r29
 3a6:	cf 91       	pop	r28
 3a8:	1f 91       	pop	r17
 3aa:	0f 91       	pop	r16
 3ac:	08 95       	ret

000003ae <__divsf3>:
 3ae:	0e 94 eb 01 	call	0x3d6	; 0x3d6 <__divsf3x>
 3b2:	0c 94 9d 02 	jmp	0x53a	; 0x53a <__fp_round>
 3b6:	0e 94 96 02 	call	0x52c	; 0x52c <__fp_pscB>
 3ba:	58 f0       	brcs	.+22     	; 0x3d2 <__divsf3+0x24>
 3bc:	0e 94 8f 02 	call	0x51e	; 0x51e <__fp_pscA>
 3c0:	40 f0       	brcs	.+16     	; 0x3d2 <__divsf3+0x24>
 3c2:	29 f4       	brne	.+10     	; 0x3ce <__divsf3+0x20>
 3c4:	5f 3f       	cpi	r21, 0xFF	; 255
 3c6:	29 f0       	breq	.+10     	; 0x3d2 <__divsf3+0x24>
 3c8:	0c 94 86 02 	jmp	0x50c	; 0x50c <__fp_inf>
 3cc:	51 11       	cpse	r21, r1
 3ce:	0c 94 d1 02 	jmp	0x5a2	; 0x5a2 <__fp_szero>
 3d2:	0c 94 8c 02 	jmp	0x518	; 0x518 <__fp_nan>

000003d6 <__divsf3x>:
 3d6:	0e 94 ae 02 	call	0x55c	; 0x55c <__fp_split3>
 3da:	68 f3       	brcs	.-38     	; 0x3b6 <__divsf3+0x8>

000003dc <__divsf3_pse>:
 3dc:	99 23       	and	r25, r25
 3de:	b1 f3       	breq	.-20     	; 0x3cc <__divsf3+0x1e>
 3e0:	55 23       	and	r21, r21
 3e2:	91 f3       	breq	.-28     	; 0x3c8 <__divsf3+0x1a>
 3e4:	95 1b       	sub	r25, r21
 3e6:	55 0b       	sbc	r21, r21
 3e8:	bb 27       	eor	r27, r27
 3ea:	aa 27       	eor	r26, r26
 3ec:	62 17       	cp	r22, r18
 3ee:	73 07       	cpc	r23, r19
 3f0:	84 07       	cpc	r24, r20
 3f2:	38 f0       	brcs	.+14     	; 0x402 <__EEPROM_REGION_LENGTH__+0x2>
 3f4:	9f 5f       	subi	r25, 0xFF	; 255
 3f6:	5f 4f       	sbci	r21, 0xFF	; 255
 3f8:	22 0f       	add	r18, r18
 3fa:	33 1f       	adc	r19, r19
 3fc:	44 1f       	adc	r20, r20
 3fe:	aa 1f       	adc	r26, r26
 400:	a9 f3       	breq	.-22     	; 0x3ec <__divsf3_pse+0x10>
 402:	35 d0       	rcall	.+106    	; 0x46e <__EEPROM_REGION_LENGTH__+0x6e>
 404:	0e 2e       	mov	r0, r30
 406:	3a f0       	brmi	.+14     	; 0x416 <__EEPROM_REGION_LENGTH__+0x16>
 408:	e0 e8       	ldi	r30, 0x80	; 128
 40a:	32 d0       	rcall	.+100    	; 0x470 <__EEPROM_REGION_LENGTH__+0x70>
 40c:	91 50       	subi	r25, 0x01	; 1
 40e:	50 40       	sbci	r21, 0x00	; 0
 410:	e6 95       	lsr	r30
 412:	00 1c       	adc	r0, r0
 414:	ca f7       	brpl	.-14     	; 0x408 <__EEPROM_REGION_LENGTH__+0x8>
 416:	2b d0       	rcall	.+86     	; 0x46e <__EEPROM_REGION_LENGTH__+0x6e>
 418:	fe 2f       	mov	r31, r30
 41a:	29 d0       	rcall	.+82     	; 0x46e <__EEPROM_REGION_LENGTH__+0x6e>
 41c:	66 0f       	add	r22, r22
 41e:	77 1f       	adc	r23, r23
 420:	88 1f       	adc	r24, r24
 422:	bb 1f       	adc	r27, r27
 424:	26 17       	cp	r18, r22
 426:	37 07       	cpc	r19, r23
 428:	48 07       	cpc	r20, r24
 42a:	ab 07       	cpc	r26, r27
 42c:	b0 e8       	ldi	r27, 0x80	; 128
 42e:	09 f0       	breq	.+2      	; 0x432 <__EEPROM_REGION_LENGTH__+0x32>
 430:	bb 0b       	sbc	r27, r27
 432:	80 2d       	mov	r24, r0
 434:	bf 01       	movw	r22, r30
 436:	ff 27       	eor	r31, r31
 438:	93 58       	subi	r25, 0x83	; 131
 43a:	5f 4f       	sbci	r21, 0xFF	; 255
 43c:	3a f0       	brmi	.+14     	; 0x44c <__EEPROM_REGION_LENGTH__+0x4c>
 43e:	9e 3f       	cpi	r25, 0xFE	; 254
 440:	51 05       	cpc	r21, r1
 442:	78 f0       	brcs	.+30     	; 0x462 <__EEPROM_REGION_LENGTH__+0x62>
 444:	0c 94 86 02 	jmp	0x50c	; 0x50c <__fp_inf>
 448:	0c 94 d1 02 	jmp	0x5a2	; 0x5a2 <__fp_szero>
 44c:	5f 3f       	cpi	r21, 0xFF	; 255
 44e:	e4 f3       	brlt	.-8      	; 0x448 <__EEPROM_REGION_LENGTH__+0x48>
 450:	98 3e       	cpi	r25, 0xE8	; 232
 452:	d4 f3       	brlt	.-12     	; 0x448 <__EEPROM_REGION_LENGTH__+0x48>
 454:	86 95       	lsr	r24
 456:	77 95       	ror	r23
 458:	67 95       	ror	r22
 45a:	b7 95       	ror	r27
 45c:	f7 95       	ror	r31
 45e:	9f 5f       	subi	r25, 0xFF	; 255
 460:	c9 f7       	brne	.-14     	; 0x454 <__EEPROM_REGION_LENGTH__+0x54>
 462:	88 0f       	add	r24, r24
 464:	91 1d       	adc	r25, r1
 466:	96 95       	lsr	r25
 468:	87 95       	ror	r24
 46a:	97 f9       	bld	r25, 7
 46c:	08 95       	ret
 46e:	e1 e0       	ldi	r30, 0x01	; 1
 470:	66 0f       	add	r22, r22
 472:	77 1f       	adc	r23, r23
 474:	88 1f       	adc	r24, r24
 476:	bb 1f       	adc	r27, r27
 478:	62 17       	cp	r22, r18
 47a:	73 07       	cpc	r23, r19
 47c:	84 07       	cpc	r24, r20
 47e:	ba 07       	cpc	r27, r26
 480:	20 f0       	brcs	.+8      	; 0x48a <__EEPROM_REGION_LENGTH__+0x8a>
 482:	62 1b       	sub	r22, r18
 484:	73 0b       	sbc	r23, r19
 486:	84 0b       	sbc	r24, r20
 488:	ba 0b       	sbc	r27, r26
 48a:	ee 1f       	adc	r30, r30
 48c:	88 f7       	brcc	.-30     	; 0x470 <__EEPROM_REGION_LENGTH__+0x70>
 48e:	e0 95       	com	r30
 490:	08 95       	ret

00000492 <__floatunsisf>:
 492:	e8 94       	clt
 494:	09 c0       	rjmp	.+18     	; 0x4a8 <__floatsisf+0x12>

00000496 <__floatsisf>:
 496:	97 fb       	bst	r25, 7
 498:	3e f4       	brtc	.+14     	; 0x4a8 <__floatsisf+0x12>
 49a:	90 95       	com	r25
 49c:	80 95       	com	r24
 49e:	70 95       	com	r23
 4a0:	61 95       	neg	r22
 4a2:	7f 4f       	sbci	r23, 0xFF	; 255
 4a4:	8f 4f       	sbci	r24, 0xFF	; 255
 4a6:	9f 4f       	sbci	r25, 0xFF	; 255
 4a8:	99 23       	and	r25, r25
 4aa:	a9 f0       	breq	.+42     	; 0x4d6 <__floatsisf+0x40>
 4ac:	f9 2f       	mov	r31, r25
 4ae:	96 e9       	ldi	r25, 0x96	; 150
 4b0:	bb 27       	eor	r27, r27
 4b2:	93 95       	inc	r25
 4b4:	f6 95       	lsr	r31
 4b6:	87 95       	ror	r24
 4b8:	77 95       	ror	r23
 4ba:	67 95       	ror	r22
 4bc:	b7 95       	ror	r27
 4be:	f1 11       	cpse	r31, r1
 4c0:	f8 cf       	rjmp	.-16     	; 0x4b2 <__floatsisf+0x1c>
 4c2:	fa f4       	brpl	.+62     	; 0x502 <__floatsisf+0x6c>
 4c4:	bb 0f       	add	r27, r27
 4c6:	11 f4       	brne	.+4      	; 0x4cc <__floatsisf+0x36>
 4c8:	60 ff       	sbrs	r22, 0
 4ca:	1b c0       	rjmp	.+54     	; 0x502 <__floatsisf+0x6c>
 4cc:	6f 5f       	subi	r22, 0xFF	; 255
 4ce:	7f 4f       	sbci	r23, 0xFF	; 255
 4d0:	8f 4f       	sbci	r24, 0xFF	; 255
 4d2:	9f 4f       	sbci	r25, 0xFF	; 255
 4d4:	16 c0       	rjmp	.+44     	; 0x502 <__floatsisf+0x6c>
 4d6:	88 23       	and	r24, r24
 4d8:	11 f0       	breq	.+4      	; 0x4de <__floatsisf+0x48>
 4da:	96 e9       	ldi	r25, 0x96	; 150
 4dc:	11 c0       	rjmp	.+34     	; 0x500 <__floatsisf+0x6a>
 4de:	77 23       	and	r23, r23
 4e0:	21 f0       	breq	.+8      	; 0x4ea <__floatsisf+0x54>
 4e2:	9e e8       	ldi	r25, 0x8E	; 142
 4e4:	87 2f       	mov	r24, r23
 4e6:	76 2f       	mov	r23, r22
 4e8:	05 c0       	rjmp	.+10     	; 0x4f4 <__floatsisf+0x5e>
 4ea:	66 23       	and	r22, r22
 4ec:	71 f0       	breq	.+28     	; 0x50a <__floatsisf+0x74>
 4ee:	96 e8       	ldi	r25, 0x86	; 134
 4f0:	86 2f       	mov	r24, r22
 4f2:	70 e0       	ldi	r23, 0x00	; 0
 4f4:	60 e0       	ldi	r22, 0x00	; 0
 4f6:	2a f0       	brmi	.+10     	; 0x502 <__floatsisf+0x6c>
 4f8:	9a 95       	dec	r25
 4fa:	66 0f       	add	r22, r22
 4fc:	77 1f       	adc	r23, r23
 4fe:	88 1f       	adc	r24, r24
 500:	da f7       	brpl	.-10     	; 0x4f8 <__floatsisf+0x62>
 502:	88 0f       	add	r24, r24
 504:	96 95       	lsr	r25
 506:	87 95       	ror	r24
 508:	97 f9       	bld	r25, 7
 50a:	08 95       	ret

0000050c <__fp_inf>:
 50c:	97 f9       	bld	r25, 7
 50e:	9f 67       	ori	r25, 0x7F	; 127
 510:	80 e8       	ldi	r24, 0x80	; 128
 512:	70 e0       	ldi	r23, 0x00	; 0
 514:	60 e0       	ldi	r22, 0x00	; 0
 516:	08 95       	ret

00000518 <__fp_nan>:
 518:	9f ef       	ldi	r25, 0xFF	; 255
 51a:	80 ec       	ldi	r24, 0xC0	; 192
 51c:	08 95       	ret

0000051e <__fp_pscA>:
 51e:	00 24       	eor	r0, r0
 520:	0a 94       	dec	r0
 522:	16 16       	cp	r1, r22
 524:	17 06       	cpc	r1, r23
 526:	18 06       	cpc	r1, r24
 528:	09 06       	cpc	r0, r25
 52a:	08 95       	ret

0000052c <__fp_pscB>:
 52c:	00 24       	eor	r0, r0
 52e:	0a 94       	dec	r0
 530:	12 16       	cp	r1, r18
 532:	13 06       	cpc	r1, r19
 534:	14 06       	cpc	r1, r20
 536:	05 06       	cpc	r0, r21
 538:	08 95       	ret

0000053a <__fp_round>:
 53a:	09 2e       	mov	r0, r25
 53c:	03 94       	inc	r0
 53e:	00 0c       	add	r0, r0
 540:	11 f4       	brne	.+4      	; 0x546 <__fp_round+0xc>
 542:	88 23       	and	r24, r24
 544:	52 f0       	brmi	.+20     	; 0x55a <__fp_round+0x20>
 546:	bb 0f       	add	r27, r27
 548:	40 f4       	brcc	.+16     	; 0x55a <__fp_round+0x20>
 54a:	bf 2b       	or	r27, r31
 54c:	11 f4       	brne	.+4      	; 0x552 <__fp_round+0x18>
 54e:	60 ff       	sbrs	r22, 0
 550:	04 c0       	rjmp	.+8      	; 0x55a <__fp_round+0x20>
 552:	6f 5f       	subi	r22, 0xFF	; 255
 554:	7f 4f       	sbci	r23, 0xFF	; 255
 556:	8f 4f       	sbci	r24, 0xFF	; 255
 558:	9f 4f       	sbci	r25, 0xFF	; 255
 55a:	08 95       	ret

0000055c <__fp_split3>:
 55c:	57 fd       	sbrc	r21, 7
 55e:	90 58       	subi	r25, 0x80	; 128
 560:	44 0f       	add	r20, r20
 562:	55 1f       	adc	r21, r21
 564:	59 f0       	breq	.+22     	; 0x57c <__fp_splitA+0x10>
 566:	5f 3f       	cpi	r21, 0xFF	; 255
 568:	71 f0       	breq	.+28     	; 0x586 <__fp_splitA+0x1a>
 56a:	47 95       	ror	r20

0000056c <__fp_splitA>:
 56c:	88 0f       	add	r24, r24
 56e:	97 fb       	bst	r25, 7
 570:	99 1f       	adc	r25, r25
 572:	61 f0       	breq	.+24     	; 0x58c <__fp_splitA+0x20>
 574:	9f 3f       	cpi	r25, 0xFF	; 255
 576:	79 f0       	breq	.+30     	; 0x596 <__fp_splitA+0x2a>
 578:	87 95       	ror	r24
 57a:	08 95       	ret
 57c:	12 16       	cp	r1, r18
 57e:	13 06       	cpc	r1, r19
 580:	14 06       	cpc	r1, r20
 582:	55 1f       	adc	r21, r21
 584:	f2 cf       	rjmp	.-28     	; 0x56a <__fp_split3+0xe>
 586:	46 95       	lsr	r20
 588:	f1 df       	rcall	.-30     	; 0x56c <__fp_splitA>
 58a:	08 c0       	rjmp	.+16     	; 0x59c <__fp_splitA+0x30>
 58c:	16 16       	cp	r1, r22
 58e:	17 06       	cpc	r1, r23
 590:	18 06       	cpc	r1, r24
 592:	99 1f       	adc	r25, r25
 594:	f1 cf       	rjmp	.-30     	; 0x578 <__fp_splitA+0xc>
 596:	86 95       	lsr	r24
 598:	71 05       	cpc	r23, r1
 59a:	61 05       	cpc	r22, r1
 59c:	08 94       	sec
 59e:	08 95       	ret

000005a0 <__fp_zero>:
 5a0:	e8 94       	clt

000005a2 <__fp_szero>:
 5a2:	bb 27       	eor	r27, r27
 5a4:	66 27       	eor	r22, r22
 5a6:	77 27       	eor	r23, r23
 5a8:	cb 01       	movw	r24, r22
 5aa:	97 f9       	bld	r25, 7
 5ac:	08 95       	ret

000005ae <__mulsf3>:
 5ae:	0e 94 ea 02 	call	0x5d4	; 0x5d4 <__mulsf3x>
 5b2:	0c 94 9d 02 	jmp	0x53a	; 0x53a <__fp_round>
 5b6:	0e 94 8f 02 	call	0x51e	; 0x51e <__fp_pscA>
 5ba:	38 f0       	brcs	.+14     	; 0x5ca <__mulsf3+0x1c>
 5bc:	0e 94 96 02 	call	0x52c	; 0x52c <__fp_pscB>
 5c0:	20 f0       	brcs	.+8      	; 0x5ca <__mulsf3+0x1c>
 5c2:	95 23       	and	r25, r21
 5c4:	11 f0       	breq	.+4      	; 0x5ca <__mulsf3+0x1c>
 5c6:	0c 94 86 02 	jmp	0x50c	; 0x50c <__fp_inf>
 5ca:	0c 94 8c 02 	jmp	0x518	; 0x518 <__fp_nan>
 5ce:	11 24       	eor	r1, r1
 5d0:	0c 94 d1 02 	jmp	0x5a2	; 0x5a2 <__fp_szero>

000005d4 <__mulsf3x>:
 5d4:	0e 94 ae 02 	call	0x55c	; 0x55c <__fp_split3>
 5d8:	70 f3       	brcs	.-36     	; 0x5b6 <__mulsf3+0x8>

000005da <__mulsf3_pse>:
 5da:	95 9f       	mul	r25, r21
 5dc:	c1 f3       	breq	.-16     	; 0x5ce <__mulsf3+0x20>
 5de:	95 0f       	add	r25, r21
 5e0:	50 e0       	ldi	r21, 0x00	; 0
 5e2:	55 1f       	adc	r21, r21
 5e4:	62 9f       	mul	r22, r18
 5e6:	f0 01       	movw	r30, r0
 5e8:	72 9f       	mul	r23, r18
 5ea:	bb 27       	eor	r27, r27
 5ec:	f0 0d       	add	r31, r0
 5ee:	b1 1d       	adc	r27, r1
 5f0:	63 9f       	mul	r22, r19
 5f2:	aa 27       	eor	r26, r26
 5f4:	f0 0d       	add	r31, r0
 5f6:	b1 1d       	adc	r27, r1
 5f8:	aa 1f       	adc	r26, r26
 5fa:	64 9f       	mul	r22, r20
 5fc:	66 27       	eor	r22, r22
 5fe:	b0 0d       	add	r27, r0
 600:	a1 1d       	adc	r26, r1
 602:	66 1f       	adc	r22, r22
 604:	82 9f       	mul	r24, r18
 606:	22 27       	eor	r18, r18
 608:	b0 0d       	add	r27, r0
 60a:	a1 1d       	adc	r26, r1
 60c:	62 1f       	adc	r22, r18
 60e:	73 9f       	mul	r23, r19
 610:	b0 0d       	add	r27, r0
 612:	a1 1d       	adc	r26, r1
 614:	62 1f       	adc	r22, r18
 616:	83 9f       	mul	r24, r19
 618:	a0 0d       	add	r26, r0
 61a:	61 1d       	adc	r22, r1
 61c:	22 1f       	adc	r18, r18
 61e:	74 9f       	mul	r23, r20
 620:	33 27       	eor	r19, r19
 622:	a0 0d       	add	r26, r0
 624:	61 1d       	adc	r22, r1
 626:	23 1f       	adc	r18, r19
 628:	84 9f       	mul	r24, r20
 62a:	60 0d       	add	r22, r0
 62c:	21 1d       	adc	r18, r1
 62e:	82 2f       	mov	r24, r18
 630:	76 2f       	mov	r23, r22
 632:	6a 2f       	mov	r22, r26
 634:	11 24       	eor	r1, r1
 636:	9f 57       	subi	r25, 0x7F	; 127
 638:	50 40       	sbci	r21, 0x00	; 0
 63a:	9a f0       	brmi	.+38     	; 0x662 <__mulsf3_pse+0x88>
 63c:	f1 f0       	breq	.+60     	; 0x67a <__mulsf3_pse+0xa0>
 63e:	88 23       	and	r24, r24
 640:	4a f0       	brmi	.+18     	; 0x654 <__mulsf3_pse+0x7a>
 642:	ee 0f       	add	r30, r30
 644:	ff 1f       	adc	r31, r31
 646:	bb 1f       	adc	r27, r27
 648:	66 1f       	adc	r22, r22
 64a:	77 1f       	adc	r23, r23
 64c:	88 1f       	adc	r24, r24
 64e:	91 50       	subi	r25, 0x01	; 1
 650:	50 40       	sbci	r21, 0x00	; 0
 652:	a9 f7       	brne	.-22     	; 0x63e <__mulsf3_pse+0x64>
 654:	9e 3f       	cpi	r25, 0xFE	; 254
 656:	51 05       	cpc	r21, r1
 658:	80 f0       	brcs	.+32     	; 0x67a <__mulsf3_pse+0xa0>
 65a:	0c 94 86 02 	jmp	0x50c	; 0x50c <__fp_inf>
 65e:	0c 94 d1 02 	jmp	0x5a2	; 0x5a2 <__fp_szero>
 662:	5f 3f       	cpi	r21, 0xFF	; 255
 664:	e4 f3       	brlt	.-8      	; 0x65e <__mulsf3_pse+0x84>
 666:	98 3e       	cpi	r25, 0xE8	; 232
 668:	d4 f3       	brlt	.-12     	; 0x65e <__mulsf3_pse+0x84>
 66a:	86 95       	lsr	r24
 66c:	77 95       	ror	r23
 66e:	67 95       	ror	r22
 670:	b7 95       	ror	r27
 672:	f7 95       	ror	r31
 674:	e7 95       	ror	r30
 676:	9f 5f       	subi	r25, 0xFF	; 255
 678:	c1 f7       	brne	.-16     	; 0x66a <__mulsf3_pse+0x90>
 67a:	fe 2b       	or	r31, r30
 67c:	88 0f       	add	r24, r24
 67e:	91 1d       	adc	r25, r1
 680:	96 95       	lsr	r25
 682:	87 95       	ror	r24
 684:	97 f9       	bld	r25, 7
 686:	08 95       	ret

00000688 <dtostrf>:
 688:	ef 92       	push	r14
 68a:	0f 93       	push	r16
 68c:	1f 93       	push	r17
 68e:	cf 93       	push	r28
 690:	df 93       	push	r29
 692:	e8 01       	movw	r28, r16
 694:	47 fd       	sbrc	r20, 7
 696:	02 c0       	rjmp	.+4      	; 0x69c <dtostrf+0x14>
 698:	34 e0       	ldi	r19, 0x04	; 4
 69a:	01 c0       	rjmp	.+2      	; 0x69e <dtostrf+0x16>
 69c:	34 e1       	ldi	r19, 0x14	; 20
 69e:	04 2e       	mov	r0, r20
 6a0:	00 0c       	add	r0, r0
 6a2:	55 0b       	sbc	r21, r21
 6a4:	57 ff       	sbrs	r21, 7
 6a6:	03 c0       	rjmp	.+6      	; 0x6ae <dtostrf+0x26>
 6a8:	51 95       	neg	r21
 6aa:	41 95       	neg	r20
 6ac:	51 09       	sbc	r21, r1
 6ae:	e3 2e       	mov	r14, r19
 6b0:	02 2f       	mov	r16, r18
 6b2:	24 2f       	mov	r18, r20
 6b4:	ae 01       	movw	r20, r28
 6b6:	0e 94 64 03 	call	0x6c8	; 0x6c8 <dtoa_prf>
 6ba:	ce 01       	movw	r24, r28
 6bc:	df 91       	pop	r29
 6be:	cf 91       	pop	r28
 6c0:	1f 91       	pop	r17
 6c2:	0f 91       	pop	r16
 6c4:	ef 90       	pop	r14
 6c6:	08 95       	ret

000006c8 <dtoa_prf>:
 6c8:	a9 e0       	ldi	r26, 0x09	; 9
 6ca:	b0 e0       	ldi	r27, 0x00	; 0
 6cc:	ea e6       	ldi	r30, 0x6A	; 106
 6ce:	f3 e0       	ldi	r31, 0x03	; 3
 6d0:	0c 94 9c 05 	jmp	0xb38	; 0xb38 <__prologue_saves__+0xc>
 6d4:	6a 01       	movw	r12, r20
 6d6:	12 2f       	mov	r17, r18
 6d8:	b0 2e       	mov	r11, r16
 6da:	2b e3       	ldi	r18, 0x3B	; 59
 6dc:	20 17       	cp	r18, r16
 6de:	20 f0       	brcs	.+8      	; 0x6e8 <dtoa_prf+0x20>
 6e0:	ff 24       	eor	r15, r15
 6e2:	f3 94       	inc	r15
 6e4:	f0 0e       	add	r15, r16
 6e6:	02 c0       	rjmp	.+4      	; 0x6ec <dtoa_prf+0x24>
 6e8:	2c e3       	ldi	r18, 0x3C	; 60
 6ea:	f2 2e       	mov	r15, r18
 6ec:	0f 2d       	mov	r16, r15
 6ee:	27 e0       	ldi	r18, 0x07	; 7
 6f0:	ae 01       	movw	r20, r28
 6f2:	4f 5f       	subi	r20, 0xFF	; 255
 6f4:	5f 4f       	sbci	r21, 0xFF	; 255
 6f6:	0e 94 be 04 	call	0x97c	; 0x97c <__ftoa_engine>
 6fa:	bc 01       	movw	r22, r24
 6fc:	49 81       	ldd	r20, Y+1	; 0x01
 6fe:	84 2f       	mov	r24, r20
 700:	89 70       	andi	r24, 0x09	; 9
 702:	81 30       	cpi	r24, 0x01	; 1
 704:	31 f0       	breq	.+12     	; 0x712 <dtoa_prf+0x4a>
 706:	e1 fc       	sbrc	r14, 1
 708:	06 c0       	rjmp	.+12     	; 0x716 <dtoa_prf+0x4e>
 70a:	e0 fe       	sbrs	r14, 0
 70c:	06 c0       	rjmp	.+12     	; 0x71a <dtoa_prf+0x52>
 70e:	90 e2       	ldi	r25, 0x20	; 32
 710:	05 c0       	rjmp	.+10     	; 0x71c <dtoa_prf+0x54>
 712:	9d e2       	ldi	r25, 0x2D	; 45
 714:	03 c0       	rjmp	.+6      	; 0x71c <dtoa_prf+0x54>
 716:	9b e2       	ldi	r25, 0x2B	; 43
 718:	01 c0       	rjmp	.+2      	; 0x71c <dtoa_prf+0x54>
 71a:	90 e0       	ldi	r25, 0x00	; 0
 71c:	5e 2d       	mov	r21, r14
 71e:	50 71       	andi	r21, 0x10	; 16
 720:	43 ff       	sbrs	r20, 3
 722:	3c c0       	rjmp	.+120    	; 0x79c <dtoa_prf+0xd4>
 724:	91 11       	cpse	r25, r1
 726:	02 c0       	rjmp	.+4      	; 0x72c <dtoa_prf+0x64>
 728:	83 e0       	ldi	r24, 0x03	; 3
 72a:	01 c0       	rjmp	.+2      	; 0x72e <dtoa_prf+0x66>
 72c:	84 e0       	ldi	r24, 0x04	; 4
 72e:	81 17       	cp	r24, r17
 730:	18 f4       	brcc	.+6      	; 0x738 <dtoa_prf+0x70>
 732:	21 2f       	mov	r18, r17
 734:	28 1b       	sub	r18, r24
 736:	01 c0       	rjmp	.+2      	; 0x73a <dtoa_prf+0x72>
 738:	20 e0       	ldi	r18, 0x00	; 0
 73a:	51 11       	cpse	r21, r1
 73c:	0b c0       	rjmp	.+22     	; 0x754 <dtoa_prf+0x8c>
 73e:	f6 01       	movw	r30, r12
 740:	82 2f       	mov	r24, r18
 742:	30 e2       	ldi	r19, 0x20	; 32
 744:	88 23       	and	r24, r24
 746:	19 f0       	breq	.+6      	; 0x74e <dtoa_prf+0x86>
 748:	31 93       	st	Z+, r19
 74a:	81 50       	subi	r24, 0x01	; 1
 74c:	fb cf       	rjmp	.-10     	; 0x744 <dtoa_prf+0x7c>
 74e:	c2 0e       	add	r12, r18
 750:	d1 1c       	adc	r13, r1
 752:	20 e0       	ldi	r18, 0x00	; 0
 754:	99 23       	and	r25, r25
 756:	29 f0       	breq	.+10     	; 0x762 <dtoa_prf+0x9a>
 758:	d6 01       	movw	r26, r12
 75a:	9c 93       	st	X, r25
 75c:	f6 01       	movw	r30, r12
 75e:	31 96       	adiw	r30, 0x01	; 1
 760:	6f 01       	movw	r12, r30
 762:	c6 01       	movw	r24, r12
 764:	03 96       	adiw	r24, 0x03	; 3
 766:	e2 fe       	sbrs	r14, 2
 768:	0a c0       	rjmp	.+20     	; 0x77e <dtoa_prf+0xb6>
 76a:	3e e4       	ldi	r19, 0x4E	; 78
 76c:	d6 01       	movw	r26, r12
 76e:	3c 93       	st	X, r19
 770:	41 e4       	ldi	r20, 0x41	; 65
 772:	11 96       	adiw	r26, 0x01	; 1
 774:	4c 93       	st	X, r20
 776:	11 97       	sbiw	r26, 0x01	; 1
 778:	12 96       	adiw	r26, 0x02	; 2
 77a:	3c 93       	st	X, r19
 77c:	06 c0       	rjmp	.+12     	; 0x78a <dtoa_prf+0xc2>
 77e:	3e e6       	ldi	r19, 0x6E	; 110
 780:	f6 01       	movw	r30, r12
 782:	30 83       	st	Z, r19
 784:	41 e6       	ldi	r20, 0x61	; 97
 786:	41 83       	std	Z+1, r20	; 0x01
 788:	32 83       	std	Z+2, r19	; 0x02
 78a:	fc 01       	movw	r30, r24
 78c:	32 2f       	mov	r19, r18
 78e:	40 e2       	ldi	r20, 0x20	; 32
 790:	33 23       	and	r19, r19
 792:	09 f4       	brne	.+2      	; 0x796 <dtoa_prf+0xce>
 794:	42 c0       	rjmp	.+132    	; 0x81a <__DATA_REGION_LENGTH__+0x1a>
 796:	41 93       	st	Z+, r20
 798:	31 50       	subi	r19, 0x01	; 1
 79a:	fa cf       	rjmp	.-12     	; 0x790 <dtoa_prf+0xc8>
 79c:	42 ff       	sbrs	r20, 2
 79e:	44 c0       	rjmp	.+136    	; 0x828 <__DATA_REGION_LENGTH__+0x28>
 7a0:	91 11       	cpse	r25, r1
 7a2:	02 c0       	rjmp	.+4      	; 0x7a8 <dtoa_prf+0xe0>
 7a4:	83 e0       	ldi	r24, 0x03	; 3
 7a6:	01 c0       	rjmp	.+2      	; 0x7aa <dtoa_prf+0xe2>
 7a8:	84 e0       	ldi	r24, 0x04	; 4
 7aa:	81 17       	cp	r24, r17
 7ac:	18 f4       	brcc	.+6      	; 0x7b4 <dtoa_prf+0xec>
 7ae:	21 2f       	mov	r18, r17
 7b0:	28 1b       	sub	r18, r24
 7b2:	01 c0       	rjmp	.+2      	; 0x7b6 <dtoa_prf+0xee>
 7b4:	20 e0       	ldi	r18, 0x00	; 0
 7b6:	51 11       	cpse	r21, r1
 7b8:	0b c0       	rjmp	.+22     	; 0x7d0 <dtoa_prf+0x108>
 7ba:	f6 01       	movw	r30, r12
 7bc:	82 2f       	mov	r24, r18
 7be:	30 e2       	ldi	r19, 0x20	; 32
 7c0:	88 23       	and	r24, r24
 7c2:	19 f0       	breq	.+6      	; 0x7ca <dtoa_prf+0x102>
 7c4:	31 93       	st	Z+, r19
 7c6:	81 50       	subi	r24, 0x01	; 1
 7c8:	fb cf       	rjmp	.-10     	; 0x7c0 <dtoa_prf+0xf8>
 7ca:	c2 0e       	add	r12, r18
 7cc:	d1 1c       	adc	r13, r1
 7ce:	20 e0       	ldi	r18, 0x00	; 0
 7d0:	99 23       	and	r25, r25
 7d2:	29 f0       	breq	.+10     	; 0x7de <dtoa_prf+0x116>
 7d4:	d6 01       	movw	r26, r12
 7d6:	9c 93       	st	X, r25
 7d8:	f6 01       	movw	r30, r12
 7da:	31 96       	adiw	r30, 0x01	; 1
 7dc:	6f 01       	movw	r12, r30
 7de:	c6 01       	movw	r24, r12
 7e0:	03 96       	adiw	r24, 0x03	; 3
 7e2:	e2 fe       	sbrs	r14, 2
 7e4:	0b c0       	rjmp	.+22     	; 0x7fc <dtoa_prf+0x134>
 7e6:	39 e4       	ldi	r19, 0x49	; 73
 7e8:	d6 01       	movw	r26, r12
 7ea:	3c 93       	st	X, r19
 7ec:	3e e4       	ldi	r19, 0x4E	; 78
 7ee:	11 96       	adiw	r26, 0x01	; 1
 7f0:	3c 93       	st	X, r19
 7f2:	11 97       	sbiw	r26, 0x01	; 1
 7f4:	36 e4       	ldi	r19, 0x46	; 70
 7f6:	12 96       	adiw	r26, 0x02	; 2
 7f8:	3c 93       	st	X, r19
 7fa:	07 c0       	rjmp	.+14     	; 0x80a <__DATA_REGION_LENGTH__+0xa>
 7fc:	39 e6       	ldi	r19, 0x69	; 105
 7fe:	f6 01       	movw	r30, r12
 800:	30 83       	st	Z, r19
 802:	3e e6       	ldi	r19, 0x6E	; 110
 804:	31 83       	std	Z+1, r19	; 0x01
 806:	36 e6       	ldi	r19, 0x66	; 102
 808:	32 83       	std	Z+2, r19	; 0x02
 80a:	fc 01       	movw	r30, r24
 80c:	32 2f       	mov	r19, r18
 80e:	40 e2       	ldi	r20, 0x20	; 32
 810:	33 23       	and	r19, r19
 812:	19 f0       	breq	.+6      	; 0x81a <__DATA_REGION_LENGTH__+0x1a>
 814:	41 93       	st	Z+, r20
 816:	31 50       	subi	r19, 0x01	; 1
 818:	fb cf       	rjmp	.-10     	; 0x810 <__DATA_REGION_LENGTH__+0x10>
 81a:	fc 01       	movw	r30, r24
 81c:	e2 0f       	add	r30, r18
 81e:	f1 1d       	adc	r31, r1
 820:	10 82       	st	Z, r1
 822:	8e ef       	ldi	r24, 0xFE	; 254
 824:	9f ef       	ldi	r25, 0xFF	; 255
 826:	a6 c0       	rjmp	.+332    	; 0x974 <__stack+0x115>
 828:	21 e0       	ldi	r18, 0x01	; 1
 82a:	30 e0       	ldi	r19, 0x00	; 0
 82c:	91 11       	cpse	r25, r1
 82e:	02 c0       	rjmp	.+4      	; 0x834 <__DATA_REGION_LENGTH__+0x34>
 830:	20 e0       	ldi	r18, 0x00	; 0
 832:	30 e0       	ldi	r19, 0x00	; 0
 834:	16 16       	cp	r1, r22
 836:	17 06       	cpc	r1, r23
 838:	1c f4       	brge	.+6      	; 0x840 <__DATA_REGION_LENGTH__+0x40>
 83a:	fb 01       	movw	r30, r22
 83c:	31 96       	adiw	r30, 0x01	; 1
 83e:	02 c0       	rjmp	.+4      	; 0x844 <__DATA_REGION_LENGTH__+0x44>
 840:	e1 e0       	ldi	r30, 0x01	; 1
 842:	f0 e0       	ldi	r31, 0x00	; 0
 844:	2e 0f       	add	r18, r30
 846:	3f 1f       	adc	r19, r31
 848:	bb 20       	and	r11, r11
 84a:	21 f0       	breq	.+8      	; 0x854 <__DATA_REGION_LENGTH__+0x54>
 84c:	eb 2d       	mov	r30, r11
 84e:	f0 e0       	ldi	r31, 0x00	; 0
 850:	31 96       	adiw	r30, 0x01	; 1
 852:	02 c0       	rjmp	.+4      	; 0x858 <__DATA_REGION_LENGTH__+0x58>
 854:	e0 e0       	ldi	r30, 0x00	; 0
 856:	f0 e0       	ldi	r31, 0x00	; 0
 858:	2e 0f       	add	r18, r30
 85a:	3f 1f       	adc	r19, r31
 85c:	e1 2f       	mov	r30, r17
 85e:	f0 e0       	ldi	r31, 0x00	; 0
 860:	2e 17       	cp	r18, r30
 862:	3f 07       	cpc	r19, r31
 864:	1c f4       	brge	.+6      	; 0x86c <__stack+0xd>
 866:	12 1b       	sub	r17, r18
 868:	21 2f       	mov	r18, r17
 86a:	01 c0       	rjmp	.+2      	; 0x86e <__stack+0xf>
 86c:	20 e0       	ldi	r18, 0x00	; 0
 86e:	8e 2d       	mov	r24, r14
 870:	88 71       	andi	r24, 0x18	; 24
 872:	59 f4       	brne	.+22     	; 0x88a <__stack+0x2b>
 874:	f6 01       	movw	r30, r12
 876:	82 2f       	mov	r24, r18
 878:	30 e2       	ldi	r19, 0x20	; 32
 87a:	88 23       	and	r24, r24
 87c:	19 f0       	breq	.+6      	; 0x884 <__stack+0x25>
 87e:	31 93       	st	Z+, r19
 880:	81 50       	subi	r24, 0x01	; 1
 882:	fb cf       	rjmp	.-10     	; 0x87a <__stack+0x1b>
 884:	c2 0e       	add	r12, r18
 886:	d1 1c       	adc	r13, r1
 888:	20 e0       	ldi	r18, 0x00	; 0
 88a:	99 23       	and	r25, r25
 88c:	29 f0       	breq	.+10     	; 0x898 <__stack+0x39>
 88e:	d6 01       	movw	r26, r12
 890:	9c 93       	st	X, r25
 892:	f6 01       	movw	r30, r12
 894:	31 96       	adiw	r30, 0x01	; 1
 896:	6f 01       	movw	r12, r30
 898:	51 11       	cpse	r21, r1
 89a:	0b c0       	rjmp	.+22     	; 0x8b2 <__stack+0x53>
 89c:	f6 01       	movw	r30, r12
 89e:	82 2f       	mov	r24, r18
 8a0:	90 e3       	ldi	r25, 0x30	; 48
 8a2:	88 23       	and	r24, r24
 8a4:	19 f0       	breq	.+6      	; 0x8ac <__stack+0x4d>
 8a6:	91 93       	st	Z+, r25
 8a8:	81 50       	subi	r24, 0x01	; 1
 8aa:	fb cf       	rjmp	.-10     	; 0x8a2 <__stack+0x43>
 8ac:	c2 0e       	add	r12, r18
 8ae:	d1 1c       	adc	r13, r1
 8b0:	20 e0       	ldi	r18, 0x00	; 0
 8b2:	0f 2d       	mov	r16, r15
 8b4:	06 0f       	add	r16, r22
 8b6:	9a 81       	ldd	r25, Y+2	; 0x02
 8b8:	34 2f       	mov	r19, r20
 8ba:	30 71       	andi	r19, 0x10	; 16
 8bc:	44 ff       	sbrs	r20, 4
 8be:	03 c0       	rjmp	.+6      	; 0x8c6 <__stack+0x67>
 8c0:	91 33       	cpi	r25, 0x31	; 49
 8c2:	09 f4       	brne	.+2      	; 0x8c6 <__stack+0x67>
 8c4:	01 50       	subi	r16, 0x01	; 1
 8c6:	10 16       	cp	r1, r16
 8c8:	24 f4       	brge	.+8      	; 0x8d2 <__stack+0x73>
 8ca:	09 30       	cpi	r16, 0x09	; 9
 8cc:	18 f0       	brcs	.+6      	; 0x8d4 <__stack+0x75>
 8ce:	08 e0       	ldi	r16, 0x08	; 8
 8d0:	01 c0       	rjmp	.+2      	; 0x8d4 <__stack+0x75>
 8d2:	01 e0       	ldi	r16, 0x01	; 1
 8d4:	ab 01       	movw	r20, r22
 8d6:	77 ff       	sbrs	r23, 7
 8d8:	02 c0       	rjmp	.+4      	; 0x8de <__stack+0x7f>
 8da:	40 e0       	ldi	r20, 0x00	; 0
 8dc:	50 e0       	ldi	r21, 0x00	; 0
 8de:	fb 01       	movw	r30, r22
 8e0:	e4 1b       	sub	r30, r20
 8e2:	f5 0b       	sbc	r31, r21
 8e4:	a1 e0       	ldi	r26, 0x01	; 1
 8e6:	b0 e0       	ldi	r27, 0x00	; 0
 8e8:	ac 0f       	add	r26, r28
 8ea:	bd 1f       	adc	r27, r29
 8ec:	ea 0f       	add	r30, r26
 8ee:	fb 1f       	adc	r31, r27
 8f0:	8e e2       	ldi	r24, 0x2E	; 46
 8f2:	a8 2e       	mov	r10, r24
 8f4:	4b 01       	movw	r8, r22
 8f6:	80 1a       	sub	r8, r16
 8f8:	91 08       	sbc	r9, r1
 8fa:	0b 2d       	mov	r16, r11
 8fc:	10 e0       	ldi	r17, 0x00	; 0
 8fe:	11 95       	neg	r17
 900:	01 95       	neg	r16
 902:	11 09       	sbc	r17, r1
 904:	4f 3f       	cpi	r20, 0xFF	; 255
 906:	bf ef       	ldi	r27, 0xFF	; 255
 908:	5b 07       	cpc	r21, r27
 90a:	21 f4       	brne	.+8      	; 0x914 <__stack+0xb5>
 90c:	d6 01       	movw	r26, r12
 90e:	ac 92       	st	X, r10
 910:	11 96       	adiw	r26, 0x01	; 1
 912:	6d 01       	movw	r12, r26
 914:	64 17       	cp	r22, r20
 916:	75 07       	cpc	r23, r21
 918:	2c f0       	brlt	.+10     	; 0x924 <__stack+0xc5>
 91a:	84 16       	cp	r8, r20
 91c:	95 06       	cpc	r9, r21
 91e:	14 f4       	brge	.+4      	; 0x924 <__stack+0xc5>
 920:	81 81       	ldd	r24, Z+1	; 0x01
 922:	01 c0       	rjmp	.+2      	; 0x926 <__stack+0xc7>
 924:	80 e3       	ldi	r24, 0x30	; 48
 926:	41 50       	subi	r20, 0x01	; 1
 928:	51 09       	sbc	r21, r1
 92a:	31 96       	adiw	r30, 0x01	; 1
 92c:	d6 01       	movw	r26, r12
 92e:	11 96       	adiw	r26, 0x01	; 1
 930:	7d 01       	movw	r14, r26
 932:	40 17       	cp	r20, r16
 934:	51 07       	cpc	r21, r17
 936:	24 f0       	brlt	.+8      	; 0x940 <__stack+0xe1>
 938:	d6 01       	movw	r26, r12
 93a:	8c 93       	st	X, r24
 93c:	67 01       	movw	r12, r14
 93e:	e2 cf       	rjmp	.-60     	; 0x904 <__stack+0xa5>
 940:	64 17       	cp	r22, r20
 942:	75 07       	cpc	r23, r21
 944:	39 f4       	brne	.+14     	; 0x954 <__stack+0xf5>
 946:	96 33       	cpi	r25, 0x36	; 54
 948:	20 f4       	brcc	.+8      	; 0x952 <__stack+0xf3>
 94a:	95 33       	cpi	r25, 0x35	; 53
 94c:	19 f4       	brne	.+6      	; 0x954 <__stack+0xf5>
 94e:	31 11       	cpse	r19, r1
 950:	01 c0       	rjmp	.+2      	; 0x954 <__stack+0xf5>
 952:	81 e3       	ldi	r24, 0x31	; 49
 954:	f6 01       	movw	r30, r12
 956:	80 83       	st	Z, r24
 958:	f7 01       	movw	r30, r14
 95a:	82 2f       	mov	r24, r18
 95c:	90 e2       	ldi	r25, 0x20	; 32
 95e:	88 23       	and	r24, r24
 960:	19 f0       	breq	.+6      	; 0x968 <__stack+0x109>
 962:	91 93       	st	Z+, r25
 964:	81 50       	subi	r24, 0x01	; 1
 966:	fb cf       	rjmp	.-10     	; 0x95e <__stack+0xff>
 968:	f7 01       	movw	r30, r14
 96a:	e2 0f       	add	r30, r18
 96c:	f1 1d       	adc	r31, r1
 96e:	10 82       	st	Z, r1
 970:	80 e0       	ldi	r24, 0x00	; 0
 972:	90 e0       	ldi	r25, 0x00	; 0
 974:	29 96       	adiw	r28, 0x09	; 9
 976:	ec e0       	ldi	r30, 0x0C	; 12
 978:	0c 94 b8 05 	jmp	0xb70	; 0xb70 <__epilogue_restores__+0xc>

0000097c <__ftoa_engine>:
 97c:	28 30       	cpi	r18, 0x08	; 8
 97e:	08 f0       	brcs	.+2      	; 0x982 <__ftoa_engine+0x6>
 980:	27 e0       	ldi	r18, 0x07	; 7
 982:	33 27       	eor	r19, r19
 984:	da 01       	movw	r26, r20
 986:	99 0f       	add	r25, r25
 988:	31 1d       	adc	r19, r1
 98a:	87 fd       	sbrc	r24, 7
 98c:	91 60       	ori	r25, 0x01	; 1
 98e:	00 96       	adiw	r24, 0x00	; 0
 990:	61 05       	cpc	r22, r1
 992:	71 05       	cpc	r23, r1
 994:	39 f4       	brne	.+14     	; 0x9a4 <__ftoa_engine+0x28>
 996:	32 60       	ori	r19, 0x02	; 2
 998:	2e 5f       	subi	r18, 0xFE	; 254
 99a:	3d 93       	st	X+, r19
 99c:	30 e3       	ldi	r19, 0x30	; 48
 99e:	2a 95       	dec	r18
 9a0:	e1 f7       	brne	.-8      	; 0x99a <__ftoa_engine+0x1e>
 9a2:	08 95       	ret
 9a4:	9f 3f       	cpi	r25, 0xFF	; 255
 9a6:	30 f0       	brcs	.+12     	; 0x9b4 <__ftoa_engine+0x38>
 9a8:	80 38       	cpi	r24, 0x80	; 128
 9aa:	71 05       	cpc	r23, r1
 9ac:	61 05       	cpc	r22, r1
 9ae:	09 f0       	breq	.+2      	; 0x9b2 <__ftoa_engine+0x36>
 9b0:	3c 5f       	subi	r19, 0xFC	; 252
 9b2:	3c 5f       	subi	r19, 0xFC	; 252
 9b4:	3d 93       	st	X+, r19
 9b6:	91 30       	cpi	r25, 0x01	; 1
 9b8:	08 f0       	brcs	.+2      	; 0x9bc <__ftoa_engine+0x40>
 9ba:	80 68       	ori	r24, 0x80	; 128
 9bc:	91 1d       	adc	r25, r1
 9be:	df 93       	push	r29
 9c0:	cf 93       	push	r28
 9c2:	1f 93       	push	r17
 9c4:	0f 93       	push	r16
 9c6:	ff 92       	push	r15
 9c8:	ef 92       	push	r14
 9ca:	19 2f       	mov	r17, r25
 9cc:	98 7f       	andi	r25, 0xF8	; 248
 9ce:	96 95       	lsr	r25
 9d0:	e9 2f       	mov	r30, r25
 9d2:	96 95       	lsr	r25
 9d4:	96 95       	lsr	r25
 9d6:	e9 0f       	add	r30, r25
 9d8:	ff 27       	eor	r31, r31
 9da:	e2 55       	subi	r30, 0x52	; 82
 9dc:	ff 4f       	sbci	r31, 0xFF	; 255
 9de:	99 27       	eor	r25, r25
 9e0:	33 27       	eor	r19, r19
 9e2:	ee 24       	eor	r14, r14
 9e4:	ff 24       	eor	r15, r15
 9e6:	a7 01       	movw	r20, r14
 9e8:	e7 01       	movw	r28, r14
 9ea:	05 90       	lpm	r0, Z+
 9ec:	08 94       	sec
 9ee:	07 94       	ror	r0
 9f0:	28 f4       	brcc	.+10     	; 0x9fc <__ftoa_engine+0x80>
 9f2:	36 0f       	add	r19, r22
 9f4:	e7 1e       	adc	r14, r23
 9f6:	f8 1e       	adc	r15, r24
 9f8:	49 1f       	adc	r20, r25
 9fa:	51 1d       	adc	r21, r1
 9fc:	66 0f       	add	r22, r22
 9fe:	77 1f       	adc	r23, r23
 a00:	88 1f       	adc	r24, r24
 a02:	99 1f       	adc	r25, r25
 a04:	06 94       	lsr	r0
 a06:	a1 f7       	brne	.-24     	; 0x9f0 <__ftoa_engine+0x74>
 a08:	05 90       	lpm	r0, Z+
 a0a:	07 94       	ror	r0
 a0c:	28 f4       	brcc	.+10     	; 0xa18 <__ftoa_engine+0x9c>
 a0e:	e7 0e       	add	r14, r23
 a10:	f8 1e       	adc	r15, r24
 a12:	49 1f       	adc	r20, r25
 a14:	56 1f       	adc	r21, r22
 a16:	c1 1d       	adc	r28, r1
 a18:	77 0f       	add	r23, r23
 a1a:	88 1f       	adc	r24, r24
 a1c:	99 1f       	adc	r25, r25
 a1e:	66 1f       	adc	r22, r22
 a20:	06 94       	lsr	r0
 a22:	a1 f7       	brne	.-24     	; 0xa0c <__ftoa_engine+0x90>
 a24:	05 90       	lpm	r0, Z+
 a26:	07 94       	ror	r0
 a28:	28 f4       	brcc	.+10     	; 0xa34 <__ftoa_engine+0xb8>
 a2a:	f8 0e       	add	r15, r24
 a2c:	49 1f       	adc	r20, r25
 a2e:	56 1f       	adc	r21, r22
 a30:	c7 1f       	adc	r28, r23
 a32:	d1 1d       	adc	r29, r1
 a34:	88 0f       	add	r24, r24
 a36:	99 1f       	adc	r25, r25
 a38:	66 1f       	adc	r22, r22
 a3a:	77 1f       	adc	r23, r23
 a3c:	06 94       	lsr	r0
 a3e:	a1 f7       	brne	.-24     	; 0xa28 <__ftoa_engine+0xac>
 a40:	05 90       	lpm	r0, Z+
 a42:	07 94       	ror	r0
 a44:	20 f4       	brcc	.+8      	; 0xa4e <__ftoa_engine+0xd2>
 a46:	49 0f       	add	r20, r25
 a48:	56 1f       	adc	r21, r22
 a4a:	c7 1f       	adc	r28, r23
 a4c:	d8 1f       	adc	r29, r24
 a4e:	99 0f       	add	r25, r25
 a50:	66 1f       	adc	r22, r22
 a52:	77 1f       	adc	r23, r23
 a54:	88 1f       	adc	r24, r24
 a56:	06 94       	lsr	r0
 a58:	a9 f7       	brne	.-22     	; 0xa44 <__ftoa_engine+0xc8>
 a5a:	84 91       	lpm	r24, Z
 a5c:	10 95       	com	r17
 a5e:	17 70       	andi	r17, 0x07	; 7
 a60:	41 f0       	breq	.+16     	; 0xa72 <__ftoa_engine+0xf6>
 a62:	d6 95       	lsr	r29
 a64:	c7 95       	ror	r28
 a66:	57 95       	ror	r21
 a68:	47 95       	ror	r20
 a6a:	f7 94       	ror	r15
 a6c:	e7 94       	ror	r14
 a6e:	1a 95       	dec	r17
 a70:	c1 f7       	brne	.-16     	; 0xa62 <__ftoa_engine+0xe6>
 a72:	e4 e5       	ldi	r30, 0x54	; 84
 a74:	f0 e0       	ldi	r31, 0x00	; 0
 a76:	68 94       	set
 a78:	15 90       	lpm	r1, Z+
 a7a:	15 91       	lpm	r17, Z+
 a7c:	35 91       	lpm	r19, Z+
 a7e:	65 91       	lpm	r22, Z+
 a80:	95 91       	lpm	r25, Z+
 a82:	05 90       	lpm	r0, Z+
 a84:	7f e2       	ldi	r23, 0x2F	; 47
 a86:	73 95       	inc	r23
 a88:	e1 18       	sub	r14, r1
 a8a:	f1 0a       	sbc	r15, r17
 a8c:	43 0b       	sbc	r20, r19
 a8e:	56 0b       	sbc	r21, r22
 a90:	c9 0b       	sbc	r28, r25
 a92:	d0 09       	sbc	r29, r0
 a94:	c0 f7       	brcc	.-16     	; 0xa86 <__ftoa_engine+0x10a>
 a96:	e1 0c       	add	r14, r1
 a98:	f1 1e       	adc	r15, r17
 a9a:	43 1f       	adc	r20, r19
 a9c:	56 1f       	adc	r21, r22
 a9e:	c9 1f       	adc	r28, r25
 aa0:	d0 1d       	adc	r29, r0
 aa2:	7e f4       	brtc	.+30     	; 0xac2 <__ftoa_engine+0x146>
 aa4:	70 33       	cpi	r23, 0x30	; 48
 aa6:	11 f4       	brne	.+4      	; 0xaac <__ftoa_engine+0x130>
 aa8:	8a 95       	dec	r24
 aaa:	e6 cf       	rjmp	.-52     	; 0xa78 <__ftoa_engine+0xfc>
 aac:	e8 94       	clt
 aae:	01 50       	subi	r16, 0x01	; 1
 ab0:	30 f0       	brcs	.+12     	; 0xabe <__ftoa_engine+0x142>
 ab2:	08 0f       	add	r16, r24
 ab4:	0a f4       	brpl	.+2      	; 0xab8 <__ftoa_engine+0x13c>
 ab6:	00 27       	eor	r16, r16
 ab8:	02 17       	cp	r16, r18
 aba:	08 f4       	brcc	.+2      	; 0xabe <__ftoa_engine+0x142>
 abc:	20 2f       	mov	r18, r16
 abe:	23 95       	inc	r18
 ac0:	02 2f       	mov	r16, r18
 ac2:	7a 33       	cpi	r23, 0x3A	; 58
 ac4:	28 f0       	brcs	.+10     	; 0xad0 <__ftoa_engine+0x154>
 ac6:	79 e3       	ldi	r23, 0x39	; 57
 ac8:	7d 93       	st	X+, r23
 aca:	2a 95       	dec	r18
 acc:	e9 f7       	brne	.-6      	; 0xac8 <__ftoa_engine+0x14c>
 ace:	10 c0       	rjmp	.+32     	; 0xaf0 <__ftoa_engine+0x174>
 ad0:	7d 93       	st	X+, r23
 ad2:	2a 95       	dec	r18
 ad4:	89 f6       	brne	.-94     	; 0xa78 <__ftoa_engine+0xfc>
 ad6:	06 94       	lsr	r0
 ad8:	97 95       	ror	r25
 ada:	67 95       	ror	r22
 adc:	37 95       	ror	r19
 ade:	17 95       	ror	r17
 ae0:	17 94       	ror	r1
 ae2:	e1 18       	sub	r14, r1
 ae4:	f1 0a       	sbc	r15, r17
 ae6:	43 0b       	sbc	r20, r19
 ae8:	56 0b       	sbc	r21, r22
 aea:	c9 0b       	sbc	r28, r25
 aec:	d0 09       	sbc	r29, r0
 aee:	98 f0       	brcs	.+38     	; 0xb16 <__ftoa_engine+0x19a>
 af0:	23 95       	inc	r18
 af2:	7e 91       	ld	r23, -X
 af4:	73 95       	inc	r23
 af6:	7a 33       	cpi	r23, 0x3A	; 58
 af8:	08 f0       	brcs	.+2      	; 0xafc <__ftoa_engine+0x180>
 afa:	70 e3       	ldi	r23, 0x30	; 48
 afc:	7c 93       	st	X, r23
 afe:	20 13       	cpse	r18, r16
 b00:	b8 f7       	brcc	.-18     	; 0xaf0 <__ftoa_engine+0x174>
 b02:	7e 91       	ld	r23, -X
 b04:	70 61       	ori	r23, 0x10	; 16
 b06:	7d 93       	st	X+, r23
 b08:	30 f0       	brcs	.+12     	; 0xb16 <__ftoa_engine+0x19a>
 b0a:	83 95       	inc	r24
 b0c:	71 e3       	ldi	r23, 0x31	; 49
 b0e:	7d 93       	st	X+, r23
 b10:	70 e3       	ldi	r23, 0x30	; 48
 b12:	2a 95       	dec	r18
 b14:	e1 f7       	brne	.-8      	; 0xb0e <__ftoa_engine+0x192>
 b16:	11 24       	eor	r1, r1
 b18:	ef 90       	pop	r14
 b1a:	ff 90       	pop	r15
 b1c:	0f 91       	pop	r16
 b1e:	1f 91       	pop	r17
 b20:	cf 91       	pop	r28
 b22:	df 91       	pop	r29
 b24:	99 27       	eor	r25, r25
 b26:	87 fd       	sbrc	r24, 7
 b28:	90 95       	com	r25
 b2a:	08 95       	ret

00000b2c <__prologue_saves__>:
 b2c:	2f 92       	push	r2
 b2e:	3f 92       	push	r3
 b30:	4f 92       	push	r4
 b32:	5f 92       	push	r5
 b34:	6f 92       	push	r6
 b36:	7f 92       	push	r7
 b38:	8f 92       	push	r8
 b3a:	9f 92       	push	r9
 b3c:	af 92       	push	r10
 b3e:	bf 92       	push	r11
 b40:	cf 92       	push	r12
 b42:	df 92       	push	r13
 b44:	ef 92       	push	r14
 b46:	ff 92       	push	r15
 b48:	0f 93       	push	r16
 b4a:	1f 93       	push	r17
 b4c:	cf 93       	push	r28
 b4e:	df 93       	push	r29
 b50:	cd b7       	in	r28, 0x3d	; 61
 b52:	de b7       	in	r29, 0x3e	; 62
 b54:	ca 1b       	sub	r28, r26
 b56:	db 0b       	sbc	r29, r27
 b58:	0f b6       	in	r0, 0x3f	; 63
 b5a:	f8 94       	cli
 b5c:	de bf       	out	0x3e, r29	; 62
 b5e:	0f be       	out	0x3f, r0	; 63
 b60:	cd bf       	out	0x3d, r28	; 61
 b62:	09 94       	ijmp

00000b64 <__epilogue_restores__>:
 b64:	2a 88       	ldd	r2, Y+18	; 0x12
 b66:	39 88       	ldd	r3, Y+17	; 0x11
 b68:	48 88       	ldd	r4, Y+16	; 0x10
 b6a:	5f 84       	ldd	r5, Y+15	; 0x0f
 b6c:	6e 84       	ldd	r6, Y+14	; 0x0e
 b6e:	7d 84       	ldd	r7, Y+13	; 0x0d
 b70:	8c 84       	ldd	r8, Y+12	; 0x0c
 b72:	9b 84       	ldd	r9, Y+11	; 0x0b
 b74:	aa 84       	ldd	r10, Y+10	; 0x0a
 b76:	b9 84       	ldd	r11, Y+9	; 0x09
 b78:	c8 84       	ldd	r12, Y+8	; 0x08
 b7a:	df 80       	ldd	r13, Y+7	; 0x07
 b7c:	ee 80       	ldd	r14, Y+6	; 0x06
 b7e:	fd 80       	ldd	r15, Y+5	; 0x05
 b80:	0c 81       	ldd	r16, Y+4	; 0x04
 b82:	1b 81       	ldd	r17, Y+3	; 0x03
 b84:	aa 81       	ldd	r26, Y+2	; 0x02
 b86:	b9 81       	ldd	r27, Y+1	; 0x01
 b88:	ce 0f       	add	r28, r30
 b8a:	d1 1d       	adc	r29, r1
 b8c:	0f b6       	in	r0, 0x3f	; 63
 b8e:	f8 94       	cli
 b90:	de bf       	out	0x3e, r29	; 62
 b92:	0f be       	out	0x3f, r0	; 63
 b94:	cd bf       	out	0x3d, r28	; 61
 b96:	ed 01       	movw	r28, r26
 b98:	08 95       	ret

00000b9a <_exit>:
 b9a:	f8 94       	cli

00000b9c <__stop_program>:
 b9c:	ff cf       	rjmp	.-2      	; 0xb9c <__stop_program>
